{
  "_format": "hh-sol-artifact-1",
  "contractName": "DynamicNFT",
  "sourceName": "contracts/DynamicNFT.sol",
  "abi": [
    {
      "inputs": [],
      "stateMutability": "nonpayable",
      "type": "constructor"
    },
    {
      "anonymous": false,
      "inputs": [
        {
          "indexed": true,
          "internalType": "address",
          "name": "owner",
          "type": "address"
        },
        {
          "indexed": true,
          "internalType": "address",
          "name": "approved",
          "type": "address"
        },
        {
          "indexed": true,
          "internalType": "uint256",
          "name": "tokenId",
          "type": "uint256"
        }
      ],
      "name": "Approval",
      "type": "event"
    },
    {
      "anonymous": false,
      "inputs": [
        {
          "indexed": true,
          "internalType": "address",
          "name": "owner",
          "type": "address"
        },
        {
          "indexed": true,
          "internalType": "address",
          "name": "operator",
          "type": "address"
        },
        {
          "indexed": false,
          "internalType": "bool",
          "name": "approved",
          "type": "bool"
        }
      ],
      "name": "ApprovalForAll",
      "type": "event"
    },
    {
      "anonymous": false,
      "inputs": [
        {
          "indexed": false,
          "internalType": "address",
          "name": "sender",
          "type": "address"
        },
        {
          "indexed": false,
          "internalType": "uint256",
          "name": "tokenId",
          "type": "uint256"
        }
      ],
      "name": "NewBasicNFTMinted",
      "type": "event"
    },
    {
      "anonymous": false,
      "inputs": [
        {
          "indexed": true,
          "internalType": "address",
          "name": "from",
          "type": "address"
        },
        {
          "indexed": true,
          "internalType": "address",
          "name": "to",
          "type": "address"
        },
        {
          "indexed": true,
          "internalType": "uint256",
          "name": "tokenId",
          "type": "uint256"
        }
      ],
      "name": "Transfer",
      "type": "event"
    },
    {
      "inputs": [
        {
          "internalType": "address",
          "name": "to",
          "type": "address"
        },
        {
          "internalType": "uint256",
          "name": "tokenId",
          "type": "uint256"
        }
      ],
      "name": "approve",
      "outputs": [],
      "stateMutability": "nonpayable",
      "type": "function"
    },
    {
      "inputs": [
        {
          "internalType": "address",
          "name": "owner",
          "type": "address"
        }
      ],
      "name": "balanceOf",
      "outputs": [
        {
          "internalType": "uint256",
          "name": "",
          "type": "uint256"
        }
      ],
      "stateMutability": "view",
      "type": "function"
    },
    {
      "inputs": [
        {
          "internalType": "uint256",
          "name": "tokenId",
          "type": "uint256"
        }
      ],
      "name": "getApproved",
      "outputs": [
        {
          "internalType": "address",
          "name": "",
          "type": "address"
        }
      ],
      "stateMutability": "view",
      "type": "function"
    },
    {
      "inputs": [
        {
          "internalType": "address",
          "name": "owner",
          "type": "address"
        },
        {
          "internalType": "address",
          "name": "operator",
          "type": "address"
        }
      ],
      "name": "isApprovedForAll",
      "outputs": [
        {
          "internalType": "bool",
          "name": "",
          "type": "bool"
        }
      ],
      "stateMutability": "view",
      "type": "function"
    },
    {
      "inputs": [
        {
          "internalType": "string",
          "name": "_ownerMsg",
          "type": "string"
        },
        {
          "internalType": "string",
          "name": "_viewableMsg",
          "type": "string"
        }
      ],
      "name": "makeDyamicNFT",
      "outputs": [],
      "stateMutability": "nonpayable",
      "type": "function"
    },
    {
      "inputs": [],
      "name": "name",
      "outputs": [
        {
          "internalType": "string",
          "name": "",
          "type": "string"
        }
      ],
      "stateMutability": "view",
      "type": "function"
    },
    {
      "inputs": [
        {
          "internalType": "uint256",
          "name": "tokenId",
          "type": "uint256"
        }
      ],
      "name": "ownerOf",
      "outputs": [
        {
          "internalType": "address",
          "name": "",
          "type": "address"
        }
      ],
      "stateMutability": "view",
      "type": "function"
    },
    {
      "inputs": [
        {
          "internalType": "address",
          "name": "from",
          "type": "address"
        },
        {
          "internalType": "address",
          "name": "to",
          "type": "address"
        },
        {
          "internalType": "uint256",
          "name": "tokenId",
          "type": "uint256"
        }
      ],
      "name": "safeTransferFrom",
      "outputs": [],
      "stateMutability": "nonpayable",
      "type": "function"
    },
    {
      "inputs": [
        {
          "internalType": "address",
          "name": "from",
          "type": "address"
        },
        {
          "internalType": "address",
          "name": "to",
          "type": "address"
        },
        {
          "internalType": "uint256",
          "name": "tokenId",
          "type": "uint256"
        },
        {
          "internalType": "bytes",
          "name": "_data",
          "type": "bytes"
        }
      ],
      "name": "safeTransferFrom",
      "outputs": [],
      "stateMutability": "nonpayable",
      "type": "function"
    },
    {
      "inputs": [
        {
          "internalType": "address",
          "name": "operator",
          "type": "address"
        },
        {
          "internalType": "bool",
          "name": "approved",
          "type": "bool"
        }
      ],
      "name": "setApprovalForAll",
      "outputs": [],
      "stateMutability": "nonpayable",
      "type": "function"
    },
    {
      "inputs": [
        {
          "internalType": "bytes4",
          "name": "interfaceId",
          "type": "bytes4"
        }
      ],
      "name": "supportsInterface",
      "outputs": [
        {
          "internalType": "bool",
          "name": "",
          "type": "bool"
        }
      ],
      "stateMutability": "view",
      "type": "function"
    },
    {
      "inputs": [],
      "name": "symbol",
      "outputs": [
        {
          "internalType": "string",
          "name": "",
          "type": "string"
        }
      ],
      "stateMutability": "view",
      "type": "function"
    },
    {
      "inputs": [
        {
          "internalType": "uint256",
          "name": "tokenId",
          "type": "uint256"
        }
      ],
      "name": "tokenURI",
      "outputs": [
        {
          "internalType": "string",
          "name": "",
          "type": "string"
        }
      ],
      "stateMutability": "view",
      "type": "function"
    },
    {
      "inputs": [
        {
          "internalType": "address",
          "name": "from",
          "type": "address"
        },
        {
          "internalType": "address",
          "name": "to",
          "type": "address"
        },
        {
          "internalType": "uint256",
          "name": "tokenId",
          "type": "uint256"
        }
      ],
      "name": "transferFrom",
      "outputs": [],
      "stateMutability": "nonpayable",
      "type": "function"
    },
    {
      "inputs": [
        {
          "internalType": "uint256",
          "name": "",
          "type": "uint256"
        }
      ],
      "name": "viewableMessage",
      "outputs": [
        {
          "internalType": "string",
          "name": "",
          "type": "string"
        }
      ],
      "stateMutability": "view",
      "type": "function"
    }
  ],
  "bytecode": "0x608060405260405180610160016040528061012f815260200162003b7d61012f9139600790805190602001906200003892919062000204565b503480156200004657600080fd5b506040518060400160405280600b81526020017f57616c6c657447616368610000000000000000000000000000000000000000008152506040518060400160405280600581526020017f67616368610000000000000000000000000000000000000000000000000000008152508160009080519060200190620000cb92919062000204565b508060019080519060200190620000e492919062000204565b505050620001326040518060400160405280600b81526020017f64796e616d6963206e66740000000000000000000000000000000000000000008152506200013860201b62000dc51760201c565b620003e1565b620001d8816040516024016200014f9190620002f5565b6040516020818303038152906040527f41304fac000000000000000000000000000000000000000000000000000000007bffffffffffffffffffffffffffffffffffffffffffffffffffffffff19166020820180517bffffffffffffffffffffffffffffffffffffffffffffffffffffffff8381831617835250505050620001db60201b60201c565b50565b60008151905060006a636f6e736f6c652e6c6f679050602083016000808483855afa5050505050565b82805462000212906200036b565b90600052602060002090601f01602090048101928262000236576000855562000282565b82601f106200025157805160ff191683800117855562000282565b8280016001018555821562000282579182015b828111156200028157825182559160200191906001019062000264565b5b50905062000291919062000295565b5090565b5b80821115620002b057600081600090555060010162000296565b5090565b6000620002c18262000319565b620002cd818562000324565b9350620002df81856020860162000335565b620002ea81620003d0565b840191505092915050565b60006020820190508181036000830152620003118184620002b4565b905092915050565b600081519050919050565b600082825260208201905092915050565b60005b838110156200035557808201518184015260208101905062000338565b8381111562000365576000848401525b50505050565b600060028204905060018216806200038457607f821691505b602082108114156200039b576200039a620003a1565b5b50919050565b7f4e487b7100000000000000000000000000000000000000000000000000000000600052602260045260246000fd5b6000601f19601f8301169050919050565b61378c80620003f16000396000f3fe608060405234801561001057600080fd5b50600436106100f45760003560e01c80636352211e11610097578063a22cb46511610066578063a22cb46514610295578063b88d4fde146102b1578063c87b56dd146102cd578063e985e9c5146102fd576100f4565b80636352211e146101e757806370a0823114610217578063953c73bf1461024757806395d89b4114610277576100f4565b8063081812fc116100d3578063081812fc14610163578063095ea7b31461019357806323b872dd146101af57806342842e0e146101cb576100f4565b8062a9fb67146100f957806301ffc9a71461011557806306fdde0314610145575b600080fd5b610113600480360381019061010e919061242c565b61032d565b005b61012f600480360381019061012a91906123da565b6104c8565b60405161013c9190612a39565b60405180910390f35b61014d6105aa565b60405161015a9190612a54565b60405180910390f35b61017d60048036038101906101789190612498565b61063c565b60405161018a91906129a9565b60405180910390f35b6101ad60048036038101906101a8919061239e565b6106c1565b005b6101c960048036038101906101c49190612298565b6107d9565b005b6101e560048036038101906101e09190612298565b610839565b005b61020160048036038101906101fc9190612498565b610859565b60405161020e91906129a9565b60405180910390f35b610231600480360381019061022c9190612233565b61090b565b60405161023e9190612cb4565b60405180910390f35b610261600480360381019061025c9190612498565b6109c3565b60405161026e9190612a54565b60405180910390f35b61027f610a63565b60405161028c9190612a54565b60405180910390f35b6102af60048036038101906102aa9190612362565b610af5565b005b6102cb60048036038101906102c691906122e7565b610b0b565b005b6102e760048036038101906102e29190612498565b610b6d565b6040516102f49190612a54565b60405180910390f35b6103176004803603810190610312919061225c565b610d31565b6040516103249190612a39565b60405180910390f35b60006103396008610e5e565b9050606481111561034957600080fd5b6103533382610e6c565b600061035e84610e8a565b905061039e6040518060400160405280600a81526020017f2d2d2d6d696e742d2d2d00000000000000000000000000000000000000000000815250610dc5565b6103a781610dc5565b6103e56040518060400160405280600a81526020017f2d2d2d6d696e742d2d2d00000000000000000000000000000000000000000000815250610dc5565b6103ef8282610f18565b83600960008481526020019081526020016000209080519060200190610416929190612057565b5082600a6000848152602001908152602001600020908051906020019061043e929190612057565b5061047f6040518060400160405280601281526020017f49443a25732c20416464726573733a20257300000000000000000000000000008152508333610f8c565b610489600861102b565b7f220ec096fff32ded1f996c317215383f61ff42601a1d402671aae94d4044d3bd33836040516104ba929190612a10565b60405180910390a150505050565b60007f80ac58cd000000000000000000000000000000000000000000000000000000007bffffffffffffffffffffffffffffffffffffffffffffffffffffffff1916827bffffffffffffffffffffffffffffffffffffffffffffffffffffffff1916148061059357507f5b5e139f000000000000000000000000000000000000000000000000000000007bffffffffffffffffffffffffffffffffffffffffffffffffffffffff1916827bffffffffffffffffffffffffffffffffffffffffffffffffffffffff1916145b806105a357506105a282611041565b5b9050919050565b6060600080546105b990612f79565b80601f01602080910402602001604051908101604052809291908181526020018280546105e590612f79565b80156106325780601f1061060757610100808354040283529160200191610632565b820191906000526020600020905b81548152906001019060200180831161061557829003601f168201915b5050505050905090565b6000610647826110ab565b610686576040517f08c379a000000000000000000000000000000000000000000000000000000000815260040161067d90612c14565b60405180910390fd5b6004600083815260200190815260200160002060009054906101000a900473ffffffffffffffffffffffffffffffffffffffff169050919050565b60006106cc82610859565b90508073ffffffffffffffffffffffffffffffffffffffff168373ffffffffffffffffffffffffffffffffffffffff16141561073d576040517f08c379a000000000000000000000000000000000000000000000000000000000815260040161073490612c74565b60405180910390fd5b8073ffffffffffffffffffffffffffffffffffffffff1661075c611117565b73ffffffffffffffffffffffffffffffffffffffff16148061078b575061078a81610785611117565b610d31565b5b6107ca576040517f08c379a00000000000000000000000000000000000000000000000000000000081526004016107c190612b54565b60405180910390fd5b6107d4838361111f565b505050565b6107ea6107e4611117565b826111d8565b610829576040517f08c379a000000000000000000000000000000000000000000000000000000000815260040161082090612c94565b60405180910390fd5b6108348383836112b6565b505050565b61085483838360405180602001604052806000815250610b0b565b505050565b6000806002600084815260200190815260200160002060009054906101000a900473ffffffffffffffffffffffffffffffffffffffff169050600073ffffffffffffffffffffffffffffffffffffffff168173ffffffffffffffffffffffffffffffffffffffff161415610902576040517f08c379a00000000000000000000000000000000000000000000000000000000081526004016108f990612b94565b60405180910390fd5b80915050919050565b60008073ffffffffffffffffffffffffffffffffffffffff168273ffffffffffffffffffffffffffffffffffffffff16141561097c576040517f08c379a000000000000000000000000000000000000000000000000000000000815260040161097390612b74565b60405180910390fd5b600360008373ffffffffffffffffffffffffffffffffffffffff1673ffffffffffffffffffffffffffffffffffffffff168152602001908152602001600020549050919050565b600a60205280600052604060002060009150905080546109e290612f79565b80601f0160208091040260200160405190810160405280929190818152602001828054610a0e90612f79565b8015610a5b5780601f10610a3057610100808354040283529160200191610a5b565b820191906000526020600020905b815481529060010190602001808311610a3e57829003601f168201915b505050505081565b606060018054610a7290612f79565b80601f0160208091040260200160405190810160405280929190818152602001828054610a9e90612f79565b8015610aeb5780601f10610ac057610100808354040283529160200191610aeb565b820191906000526020600020905b815481529060010190602001808311610ace57829003601f168201915b5050505050905090565b610b07610b00611117565b8383611512565b5050565b610b1c610b16611117565b836111d8565b610b5b576040517f08c379a0000000000000000000000000000000000000000000000000000000008152600401610b5290612c94565b60405180910390fd5b610b678484848461167f565b50505050565b6060610b78826110ab565b610bb7576040517f08c379a0000000000000000000000000000000000000000000000000000000008152600401610bae90612c54565b60405180910390fd5b3373ffffffffffffffffffffffffffffffffffffffff16610bd783610859565b73ffffffffffffffffffffffffffffffffffffffff161415610c4157610c316040518060400160405280601381526020017f6d73672073656e646572206973206f776e657200000000000000000000000000815250610dc5565b610c3a826116db565b9050610d2c565b610c7f6040518060400160405280601781526020017f6d73672073656e646572206973206e6f74206f776e6572000000000000000000815250610dc5565b6000610d25600a60008581526020019081526020016000208054610ca290612f79565b80601f0160208091040260200160405190810160405280929190818152602001828054610cce90612f79565b8015610d1b5780601f10610cf057610100808354040283529160200191610d1b565b820191906000526020600020905b815481529060010190602001808311610cfe57829003601f168201915b5050505050610e8a565b9050809150505b919050565b6000600560008473ffffffffffffffffffffffffffffffffffffffff1673ffffffffffffffffffffffffffffffffffffffff16815260200190815260200160002060008373ffffffffffffffffffffffffffffffffffffffff1673ffffffffffffffffffffffffffffffffffffffff16815260200190815260200160002060009054906101000a900460ff16905092915050565b610e5b81604051602401610dd99190612a54565b6040516020818303038152906040527f41304fac000000000000000000000000000000000000000000000000000000007bffffffffffffffffffffffffffffffffffffffffffffffffffffffff19166020820180517bffffffffffffffffffffffffffffffffffffffffffffffffffffffff838183161783525050505061182d565b50565b600081600001549050919050565b610e86828260405180602001604052806000815250611856565b5050565b60606000600783604051602001610ea2929190612913565b60405160208183030381529060405290506000610ee784610ec2846118b1565b604051602001610ed3929190612942565b6040516020818303038152906040526118b1565b9050600081604051602001610efc9190612987565b6040516020818303038152906040529050809350505050919050565b610f21826110ab565b610f60576040517f08c379a0000000000000000000000000000000000000000000000000000000008152600401610f5790612bb4565b60405180910390fd5b80600660008481526020019081526020016000209080519060200190610f87929190612057565b505050565b611026838383604051602401610fa493929190612a76565b6040516020818303038152906040527fe3849f79000000000000000000000000000000000000000000000000000000007bffffffffffffffffffffffffffffffffffffffffffffffffffffffff19166020820180517bffffffffffffffffffffffffffffffffffffffffffffffffffffffff838183161783525050505061182d565b505050565b6001816000016000828254019250508190555050565b60007f01ffc9a7000000000000000000000000000000000000000000000000000000007bffffffffffffffffffffffffffffffffffffffffffffffffffffffff1916827bffffffffffffffffffffffffffffffffffffffffffffffffffffffff1916149050919050565b60008073ffffffffffffffffffffffffffffffffffffffff166002600084815260200190815260200160002060009054906101000a900473ffffffffffffffffffffffffffffffffffffffff1673ffffffffffffffffffffffffffffffffffffffff1614159050919050565b600033905090565b816004600083815260200190815260200160002060006101000a81548173ffffffffffffffffffffffffffffffffffffffff021916908373ffffffffffffffffffffffffffffffffffffffff160217905550808273ffffffffffffffffffffffffffffffffffffffff1661119283610859565b73ffffffffffffffffffffffffffffffffffffffff167f8c5be1e5ebec7d5bd14f71427d1e84f3dd0314c0f7b2291e5b200ac8c7c3b92560405160405180910390a45050565b60006111e3826110ab565b611222576040517f08c379a000000000000000000000000000000000000000000000000000000000815260040161121990612b34565b60405180910390fd5b600061122d83610859565b90508073ffffffffffffffffffffffffffffffffffffffff168473ffffffffffffffffffffffffffffffffffffffff16148061129c57508373ffffffffffffffffffffffffffffffffffffffff166112848461063c565b73ffffffffffffffffffffffffffffffffffffffff16145b806112ad57506112ac8185610d31565b5b91505092915050565b8273ffffffffffffffffffffffffffffffffffffffff166112d682610859565b73ffffffffffffffffffffffffffffffffffffffff161461132c576040517f08c379a000000000000000000000000000000000000000000000000000000000815260040161132390612c34565b60405180910390fd5b600073ffffffffffffffffffffffffffffffffffffffff168273ffffffffffffffffffffffffffffffffffffffff16141561139c576040517f08c379a000000000000000000000000000000000000000000000000000000000815260040161139390612af4565b60405180910390fd5b6113a7838383611a6f565b6113b260008261111f565b6001600360008573ffffffffffffffffffffffffffffffffffffffff1673ffffffffffffffffffffffffffffffffffffffff16815260200190815260200160002060008282546114029190612e8f565b925050819055506001600360008473ffffffffffffffffffffffffffffffffffffffff1673ffffffffffffffffffffffffffffffffffffffff16815260200190815260200160002060008282546114599190612dae565b92505081905550816002600083815260200190815260200160002060006101000a81548173ffffffffffffffffffffffffffffffffffffffff021916908373ffffffffffffffffffffffffffffffffffffffff160217905550808273ffffffffffffffffffffffffffffffffffffffff168473ffffffffffffffffffffffffffffffffffffffff167fddf252ad1be2c89b69c2b068fc378daa952ba7f163c4a11628f55a4df523b3ef60405160405180910390a4505050565b8173ffffffffffffffffffffffffffffffffffffffff168373ffffffffffffffffffffffffffffffffffffffff161415611581576040517f08c379a000000000000000000000000000000000000000000000000000000000815260040161157890612b14565b60405180910390fd5b80600560008573ffffffffffffffffffffffffffffffffffffffff1673ffffffffffffffffffffffffffffffffffffffff16815260200190815260200160002060008473ffffffffffffffffffffffffffffffffffffffff1673ffffffffffffffffffffffffffffffffffffffff16815260200190815260200160002060006101000a81548160ff0219169083151502179055508173ffffffffffffffffffffffffffffffffffffffff168373ffffffffffffffffffffffffffffffffffffffff167f17307eab39ab6107e8899845ad3d59bd9653f200f220920489ca2b5937696c31836040516116729190612a39565b60405180910390a3505050565b61168a8484846112b6565b61169684848484611a74565b6116d5576040517f08c379a00000000000000000000000000000000000000000000000000000000081526004016116cc90612ab4565b60405180910390fd5b50505050565b60606116e6826110ab565b611725576040517f08c379a000000000000000000000000000000000000000000000000000000000815260040161171c90612bf4565b60405180910390fd5b600060066000848152602001908152602001600020805461174590612f79565b80601f016020809104026020016040519081016040528092919081815260200182805461177190612f79565b80156117be5780601f10611793576101008083540402835291602001916117be565b820191906000526020600020905b8154815290600101906020018083116117a157829003601f168201915b5050505050905060006117cf611c0b565b90506000815114156117e5578192505050611828565b60008251111561181a5780826040516020016118029291906128ef565b60405160208183030381529060405292505050611828565b61182384611c22565b925050505b919050565b60008151905060006a636f6e736f6c652e6c6f679050602083016000808483855afa5050505050565b6118608383611cc9565b61186d6000848484611a74565b6118ac576040517f08c379a00000000000000000000000000000000000000000000000000000000081526004016118a390612ab4565b60405180910390fd5b505050565b606060008251905060008114156118da5760405180602001604052806000815250915050611a6a565b600060036002836118eb9190612dae565b6118f59190612e04565b60046119019190612e35565b905060006020826119129190612dae565b67ffffffffffffffff811115611951577f4e487b7100000000000000000000000000000000000000000000000000000000600052604160045260246000fd5b6040519080825280601f01601f1916602001820160405280156119835781602001600182028036833780820191505090505b5090506000604051806060016040528060408152602001613717604091399050600181016020830160005b86811015611a275760038101905062ffffff818a015116603f8160121c168401518060081b905060ff603f83600c1c1686015116810190508060081b905060ff603f8360061c1686015116810190508060081b905060ff603f831686015116810190508060e01b905080845260048401935050506119ae565b506003860660018114611a415760028114611a5157611a5c565b613d3d60f01b6002830352611a5c565b603d60f81b60018303525b508484525050819450505050505b919050565b505050565b6000611a958473ffffffffffffffffffffffffffffffffffffffff16611e97565b15611bfe578373ffffffffffffffffffffffffffffffffffffffff1663150b7a02611abe611117565b8786866040518563ffffffff1660e01b8152600401611ae094939291906129c4565b602060405180830381600087803b158015611afa57600080fd5b505af1925050508015611b2b57506040513d601f19601f82011682018060405250810190611b289190612403565b60015b611bae573d8060008114611b5b576040519150601f19603f3d011682016040523d82523d6000602084013e611b60565b606091505b50600081511415611ba6576040517f08c379a0000000000000000000000000000000000000000000000000000000008152600401611b9d90612ab4565b60405180910390fd5b805181602001fd5b63150b7a0260e01b7bffffffffffffffffffffffffffffffffffffffffffffffffffffffff1916817bffffffffffffffffffffffffffffffffffffffffffffffffffffffff191614915050611c03565b600190505b949350505050565b606060405180602001604052806000815250905090565b6060611c2d826110ab565b611c6c576040517f08c379a0000000000000000000000000000000000000000000000000000000008152600401611c6390612c54565b60405180910390fd5b6000611c76611c0b565b90506000815111611c965760405180602001604052806000815250611cc1565b80611ca084611eaa565b604051602001611cb19291906128ef565b6040516020818303038152906040525b915050919050565b600073ffffffffffffffffffffffffffffffffffffffff168273ffffffffffffffffffffffffffffffffffffffff161415611d39576040517f08c379a0000000000000000000000000000000000000000000000000000000008152600401611d3090612bd4565b60405180910390fd5b611d42816110ab565b15611d82576040517f08c379a0000000000000000000000000000000000000000000000000000000008152600401611d7990612ad4565b60405180910390fd5b611d8e60008383611a6f565b6001600360008473ffffffffffffffffffffffffffffffffffffffff1673ffffffffffffffffffffffffffffffffffffffff1681526020019081526020016000206000828254611dde9190612dae565b92505081905550816002600083815260200190815260200160002060006101000a81548173ffffffffffffffffffffffffffffffffffffffff021916908373ffffffffffffffffffffffffffffffffffffffff160217905550808273ffffffffffffffffffffffffffffffffffffffff16600073ffffffffffffffffffffffffffffffffffffffff167fddf252ad1be2c89b69c2b068fc378daa952ba7f163c4a11628f55a4df523b3ef60405160405180910390a45050565b600080823b905060008111915050919050565b60606000821415611ef2576040518060400160405280600181526020017f30000000000000000000000000000000000000000000000000000000000000008152509050612052565b600082905060005b60008214611f24578080611f0d90612fdc565b915050600a82611f1d9190612e04565b9150611efa565b60008167ffffffffffffffff811115611f66577f4e487b7100000000000000000000000000000000000000000000000000000000600052604160045260246000fd5b6040519080825280601f01601f191660200182016040528015611f985781602001600182028036833780820191505090505b5090505b6000851461204b57600182611fb19190612e8f565b9150600a85611fc09190613025565b6030611fcc9190612dae565b60f81b818381518110612008577f4e487b7100000000000000000000000000000000000000000000000000000000600052603260045260246000fd5b60200101907effffffffffffffffffffffffffffffffffffffffffffffffffffffffffffff1916908160001a905350600a856120449190612e04565b9450611f9c565b8093505050505b919050565b82805461206390612f79565b90600052602060002090601f01602090048101928261208557600085556120cc565b82601f1061209e57805160ff19168380011785556120cc565b828001600101855582156120cc579182015b828111156120cb5782518255916020019190600101906120b0565b5b5090506120d991906120dd565b5090565b5b808211156120f65760008160009055506001016120de565b5090565b600061210d61210884612cf4565b612ccf565b90508281526020810184848401111561212557600080fd5b612130848285612f37565b509392505050565b600061214b61214684612d25565b612ccf565b90508281526020810184848401111561216357600080fd5b61216e848285612f37565b509392505050565b600081359050612185816136ba565b92915050565b60008135905061219a816136d1565b92915050565b6000813590506121af816136e8565b92915050565b6000815190506121c4816136e8565b92915050565b600082601f8301126121db57600080fd5b81356121eb8482602086016120fa565b91505092915050565b600082601f83011261220557600080fd5b8135612215848260208601612138565b91505092915050565b60008135905061222d816136ff565b92915050565b60006020828403121561224557600080fd5b600061225384828501612176565b91505092915050565b6000806040838503121561226f57600080fd5b600061227d85828601612176565b925050602061228e85828601612176565b9150509250929050565b6000806000606084860312156122ad57600080fd5b60006122bb86828701612176565b93505060206122cc86828701612176565b92505060406122dd8682870161221e565b9150509250925092565b600080600080608085870312156122fd57600080fd5b600061230b87828801612176565b945050602061231c87828801612176565b935050604061232d8782880161221e565b925050606085013567ffffffffffffffff81111561234a57600080fd5b612356878288016121ca565b91505092959194509250565b6000806040838503121561237557600080fd5b600061238385828601612176565b92505060206123948582860161218b565b9150509250929050565b600080604083850312156123b157600080fd5b60006123bf85828601612176565b92505060206123d08582860161221e565b9150509250929050565b6000602082840312156123ec57600080fd5b60006123fa848285016121a0565b91505092915050565b60006020828403121561241557600080fd5b6000612423848285016121b5565b91505092915050565b6000806040838503121561243f57600080fd5b600083013567ffffffffffffffff81111561245957600080fd5b612465858286016121f4565b925050602083013567ffffffffffffffff81111561248257600080fd5b61248e858286016121f4565b9150509250929050565b6000602082840312156124aa57600080fd5b60006124b88482850161221e565b91505092915050565b6124ca81612ec3565b82525050565b6124d981612ed5565b82525050565b60006124ea82612d6b565b6124f48185612d81565b9350612504818560208601612f46565b61250d81613112565b840191505092915050565b600061252382612d76565b61252d8185612d92565b935061253d818560208601612f46565b61254681613112565b840191505092915050565b600061255c82612d76565b6125668185612da3565b9350612576818560208601612f46565b80840191505092915050565b6000815461258f81612f79565b6125998186612da3565b945060018216600081146125b457600181146125c5576125f8565b60ff198316865281860193506125f8565b6125ce85612d56565b60005b838110156125f0578154818901526001820191506020810190506125d1565b838801955050505b50505092915050565b600061260e603283612d92565b915061261982613123565b604082019050919050565b6000612631601c83612d92565b915061263c82613172565b602082019050919050565b6000612654602483612d92565b915061265f8261319b565b604082019050919050565b6000612677601983612d92565b9150612682826131ea565b602082019050919050565b600061269a602c83612d92565b91506126a582613213565b604082019050919050565b60006126bd600d83612da3565b91506126c882613262565b600d82019050919050565b60006126e0603883612d92565b91506126eb8261328b565b604082019050919050565b6000612703602a83612d92565b915061270e826132da565b604082019050919050565b6000612726602983612d92565b915061273182613329565b604082019050919050565b6000612749602e83612d92565b915061275482613378565b604082019050919050565b600061276c600283612da3565b9150612777826133c7565b600282019050919050565b600061278f602083612d92565b915061279a826133f0565b602082019050919050565b60006127b2603183612d92565b91506127bd82613419565b604082019050919050565b60006127d5602c83612d92565b91506127e082613468565b604082019050919050565b60006127f8602983612d92565b9150612803826134b7565b604082019050919050565b600061281b602f83612d92565b915061282682613506565b604082019050919050565b600061283e600a83612da3565b915061284982613555565b600a82019050919050565b6000612861602183612d92565b915061286c8261357e565b604082019050919050565b6000612884601d83612da3565b915061288f826135cd565b601d82019050919050565b60006128a7603183612d92565b91506128b2826135f6565b604082019050919050565b60006128ca604683612da3565b91506128d582613645565b604682019050919050565b6128e981612f2d565b82525050565b60006128fb8285612551565b91506129078284612551565b91508190509392505050565b600061291f8285612582565b915061292b8284612551565b9150612936826126b0565b91508190509392505050565b600061294d82612831565b91506129598285612551565b9150612964826128bd565b91506129708284612551565b915061297b8261275f565b91508190509392505050565b600061299282612877565b915061299e8284612551565b915081905092915050565b60006020820190506129be60008301846124c1565b92915050565b60006080820190506129d960008301876124c1565b6129e660208301866124c1565b6129f360408301856128e0565b8181036060830152612a0581846124df565b905095945050505050565b6000604082019050612a2560008301856124c1565b612a3260208301846128e0565b9392505050565b6000602082019050612a4e60008301846124d0565b92915050565b60006020820190508181036000830152612a6e8184612518565b905092915050565b60006060820190508181036000830152612a908186612518565b9050612a9f60208301856128e0565b612aac60408301846124c1565b949350505050565b60006020820190508181036000830152612acd81612601565b9050919050565b60006020820190508181036000830152612aed81612624565b9050919050565b60006020820190508181036000830152612b0d81612647565b9050919050565b60006020820190508181036000830152612b2d8161266a565b9050919050565b60006020820190508181036000830152612b4d8161268d565b9050919050565b60006020820190508181036000830152612b6d816126d3565b9050919050565b60006020820190508181036000830152612b8d816126f6565b9050919050565b60006020820190508181036000830152612bad81612719565b9050919050565b60006020820190508181036000830152612bcd8161273c565b9050919050565b60006020820190508181036000830152612bed81612782565b9050919050565b60006020820190508181036000830152612c0d816127a5565b9050919050565b60006020820190508181036000830152612c2d816127c8565b9050919050565b60006020820190508181036000830152612c4d816127eb565b9050919050565b60006020820190508181036000830152612c6d8161280e565b9050919050565b60006020820190508181036000830152612c8d81612854565b9050919050565b60006020820190508181036000830152612cad8161289a565b9050919050565b6000602082019050612cc960008301846128e0565b92915050565b6000612cd9612cea565b9050612ce58282612fab565b919050565b6000604051905090565b600067ffffffffffffffff821115612d0f57612d0e6130e3565b5b612d1882613112565b9050602081019050919050565b600067ffffffffffffffff821115612d4057612d3f6130e3565b5b612d4982613112565b9050602081019050919050565b60008190508160005260206000209050919050565b600081519050919050565b600081519050919050565b600082825260208201905092915050565b600082825260208201905092915050565b600081905092915050565b6000612db982612f2d565b9150612dc483612f2d565b9250827fffffffffffffffffffffffffffffffffffffffffffffffffffffffffffffffff03821115612df957612df8613056565b5b828201905092915050565b6000612e0f82612f2d565b9150612e1a83612f2d565b925082612e2a57612e29613085565b5b828204905092915050565b6000612e4082612f2d565b9150612e4b83612f2d565b9250817fffffffffffffffffffffffffffffffffffffffffffffffffffffffffffffffff0483118215151615612e8457612e83613056565b5b828202905092915050565b6000612e9a82612f2d565b9150612ea583612f2d565b925082821015612eb857612eb7613056565b5b828203905092915050565b6000612ece82612f0d565b9050919050565b60008115159050919050565b60007fffffffff0000000000000000000000000000000000000000000000000000000082169050919050565b600073ffffffffffffffffffffffffffffffffffffffff82169050919050565b6000819050919050565b82818337600083830152505050565b60005b83811015612f64578082015181840152602081019050612f49565b83811115612f73576000848401525b50505050565b60006002820490506001821680612f9157607f821691505b60208210811415612fa557612fa46130b4565b5b50919050565b612fb482613112565b810181811067ffffffffffffffff82111715612fd357612fd26130e3565b5b80604052505050565b6000612fe782612f2d565b91507fffffffffffffffffffffffffffffffffffffffffffffffffffffffffffffffff82141561301a57613019613056565b5b600182019050919050565b600061303082612f2d565b915061303b83612f2d565b92508261304b5761304a613085565b5b828206905092915050565b7f4e487b7100000000000000000000000000000000000000000000000000000000600052601160045260246000fd5b7f4e487b7100000000000000000000000000000000000000000000000000000000600052601260045260246000fd5b7f4e487b7100000000000000000000000000000000000000000000000000000000600052602260045260246000fd5b7f4e487b7100000000000000000000000000000000000000000000000000000000600052604160045260246000fd5b6000601f19601f8301169050919050565b7f4552433732313a207472616e7366657220746f206e6f6e20455243373231526560008201527f63656976657220696d706c656d656e7465720000000000000000000000000000602082015250565b7f4552433732313a20746f6b656e20616c7265616479206d696e74656400000000600082015250565b7f4552433732313a207472616e7366657220746f20746865207a65726f2061646460008201527f7265737300000000000000000000000000000000000000000000000000000000602082015250565b7f4552433732313a20617070726f766520746f2063616c6c657200000000000000600082015250565b7f4552433732313a206f70657261746f7220717565727920666f72206e6f6e657860008201527f697374656e7420746f6b656e0000000000000000000000000000000000000000602082015250565b7f3c2f746578743e3c2f7376673e00000000000000000000000000000000000000600082015250565b7f4552433732313a20617070726f76652063616c6c6572206973206e6f74206f7760008201527f6e6572206e6f7220617070726f76656420666f7220616c6c0000000000000000602082015250565b7f4552433732313a2062616c616e636520717565727920666f7220746865207a6560008201527f726f206164647265737300000000000000000000000000000000000000000000602082015250565b7f4552433732313a206f776e657220717565727920666f72206e6f6e657869737460008201527f656e7420746f6b656e0000000000000000000000000000000000000000000000602082015250565b7f45524337323155524953746f726167653a2055524920736574206f66206e6f6e60008201527f6578697374656e7420746f6b656e000000000000000000000000000000000000602082015250565b7f227d000000000000000000000000000000000000000000000000000000000000600082015250565b7f4552433732313a206d696e7420746f20746865207a65726f2061646472657373600082015250565b7f45524337323155524953746f726167653a2055524920717565727920666f722060008201527f6e6f6e6578697374656e7420746f6b656e000000000000000000000000000000602082015250565b7f4552433732313a20617070726f76656420717565727920666f72206e6f6e657860008201527f697374656e7420746f6b656e0000000000000000000000000000000000000000602082015250565b7f4552433732313a207472616e73666572206f6620746f6b656e2074686174206960008201527f73206e6f74206f776e0000000000000000000000000000000000000000000000602082015250565b7f4552433732314d657461646174613a2055524920717565727920666f72206e6f60008201527f6e6578697374656e7420746f6b656e0000000000000000000000000000000000602082015250565b7f7b226e616d65223a202200000000000000000000000000000000000000000000600082015250565b7f4552433732313a20617070726f76616c20746f2063757272656e74206f776e6560008201527f7200000000000000000000000000000000000000000000000000000000000000602082015250565b7f646174613a6170706c69636174696f6e2f6a736f6e3b6261736536342c000000600082015250565b7f4552433732313a207472616e736665722063616c6c6572206973206e6f74206f60008201527f776e6572206e6f7220617070726f766564000000000000000000000000000000602082015250565b7f222c20226465736372697074696f6e223a202253757368692073616b616e612260008201527f2c2022696d616765223a2022646174613a696d6167652f7376672b786d6c3b6260208201527f61736536342c0000000000000000000000000000000000000000000000000000604082015250565b6136c381612ec3565b81146136ce57600080fd5b50565b6136da81612ed5565b81146136e557600080fd5b50565b6136f181612ee1565b81146136fc57600080fd5b50565b61370881612f2d565b811461371357600080fd5b5056fe4142434445464748494a4b4c4d4e4f505152535455565758595a6162636465666768696a6b6c6d6e6f707172737475767778797a303132333435363738392b2fa2646970667358221220d4a27be8fb5b777259a4b0cc73d46e9c45c0513a4843abaf11df371b28e166ea64736f6c634300080400333c73766720786d6c6e733d27687474703a2f2f7777772e77332e6f72672f323030302f73766727207072657365727665417370656374526174696f3d27784d696e594d696e206d656574272076696577426f783d273020302033353020333530273e3c7374796c653e2e62617365207b2066696c6c3a2077686974653b20666f6e742d66616d696c793a2073657269663b20666f6e742d73697a653a20323470783b207d3c2f7374796c653e3c726563742077696474683d273130302527206865696768743d2731303025272066696c6c3d27626c61636b27202f3e3c7465787420783d273530252720793d273530252720636c6173733d27626173652720646f6d696e616e742d626173656c696e653d276d6964646c652720746578742d616e63686f723d276d6964646c65273e",
  "linkReferences": {},
  "deployedLinkReferences": {}
}