{
  "_format": "hh-sol-artifact-1",
  "contractName": "DynamicNFT",
  "sourceName": "contracts/DynamicNFT.sol",
  "abi": [
    {
      "inputs": [],
      "stateMutability": "nonpayable",
      "type": "constructor"
    },
    {
      "anonymous": false,
      "inputs": [
        {
          "indexed": true,
          "internalType": "address",
          "name": "owner",
          "type": "address"
        },
        {
          "indexed": true,
          "internalType": "address",
          "name": "approved",
          "type": "address"
        },
        {
          "indexed": true,
          "internalType": "uint256",
          "name": "tokenId",
          "type": "uint256"
        }
      ],
      "name": "Approval",
      "type": "event"
    },
    {
      "anonymous": false,
      "inputs": [
        {
          "indexed": true,
          "internalType": "address",
          "name": "owner",
          "type": "address"
        },
        {
          "indexed": true,
          "internalType": "address",
          "name": "operator",
          "type": "address"
        },
        {
          "indexed": false,
          "internalType": "bool",
          "name": "approved",
          "type": "bool"
        }
      ],
      "name": "ApprovalForAll",
      "type": "event"
    },
    {
      "anonymous": false,
      "inputs": [
        {
          "indexed": false,
          "internalType": "address",
          "name": "sender",
          "type": "address"
        },
        {
          "indexed": false,
          "internalType": "uint256",
          "name": "tokenId",
          "type": "uint256"
        }
      ],
      "name": "NewBasicNFTMinted",
      "type": "event"
    },
    {
      "anonymous": false,
      "inputs": [
        {
          "indexed": true,
          "internalType": "address",
          "name": "from",
          "type": "address"
        },
        {
          "indexed": true,
          "internalType": "address",
          "name": "to",
          "type": "address"
        },
        {
          "indexed": true,
          "internalType": "uint256",
          "name": "tokenId",
          "type": "uint256"
        }
      ],
      "name": "Transfer",
      "type": "event"
    },
    {
      "inputs": [
        {
          "internalType": "address",
          "name": "to",
          "type": "address"
        },
        {
          "internalType": "uint256",
          "name": "tokenId",
          "type": "uint256"
        }
      ],
      "name": "approve",
      "outputs": [],
      "stateMutability": "nonpayable",
      "type": "function"
    },
    {
      "inputs": [
        {
          "internalType": "address",
          "name": "owner",
          "type": "address"
        }
      ],
      "name": "balanceOf",
      "outputs": [
        {
          "internalType": "uint256",
          "name": "",
          "type": "uint256"
        }
      ],
      "stateMutability": "view",
      "type": "function"
    },
    {
      "inputs": [
        {
          "internalType": "uint256",
          "name": "tokenId",
          "type": "uint256"
        }
      ],
      "name": "getApproved",
      "outputs": [
        {
          "internalType": "address",
          "name": "",
          "type": "address"
        }
      ],
      "stateMutability": "view",
      "type": "function"
    },
    {
      "inputs": [
        {
          "internalType": "address",
          "name": "owner",
          "type": "address"
        },
        {
          "internalType": "address",
          "name": "operator",
          "type": "address"
        }
      ],
      "name": "isApprovedForAll",
      "outputs": [
        {
          "internalType": "bool",
          "name": "",
          "type": "bool"
        }
      ],
      "stateMutability": "view",
      "type": "function"
    },
    {
      "inputs": [
        {
          "internalType": "string",
          "name": "_ownerMsg",
          "type": "string"
        },
        {
          "internalType": "string",
          "name": "_viewableMsg",
          "type": "string"
        },
        {
          "internalType": "string",
          "name": "_textColor",
          "type": "string"
        },
        {
          "internalType": "string",
          "name": "_backgroundColor",
          "type": "string"
        }
      ],
      "name": "makeDyamicNFT",
      "outputs": [],
      "stateMutability": "nonpayable",
      "type": "function"
    },
    {
      "inputs": [],
      "name": "name",
      "outputs": [
        {
          "internalType": "string",
          "name": "",
          "type": "string"
        }
      ],
      "stateMutability": "view",
      "type": "function"
    },
    {
      "inputs": [
        {
          "internalType": "uint256",
          "name": "tokenId",
          "type": "uint256"
        }
      ],
      "name": "ownerOf",
      "outputs": [
        {
          "internalType": "address",
          "name": "",
          "type": "address"
        }
      ],
      "stateMutability": "view",
      "type": "function"
    },
    {
      "inputs": [
        {
          "internalType": "address",
          "name": "from",
          "type": "address"
        },
        {
          "internalType": "address",
          "name": "to",
          "type": "address"
        },
        {
          "internalType": "uint256",
          "name": "tokenId",
          "type": "uint256"
        }
      ],
      "name": "safeTransferFrom",
      "outputs": [],
      "stateMutability": "nonpayable",
      "type": "function"
    },
    {
      "inputs": [
        {
          "internalType": "address",
          "name": "from",
          "type": "address"
        },
        {
          "internalType": "address",
          "name": "to",
          "type": "address"
        },
        {
          "internalType": "uint256",
          "name": "tokenId",
          "type": "uint256"
        },
        {
          "internalType": "bytes",
          "name": "_data",
          "type": "bytes"
        }
      ],
      "name": "safeTransferFrom",
      "outputs": [],
      "stateMutability": "nonpayable",
      "type": "function"
    },
    {
      "inputs": [
        {
          "internalType": "address",
          "name": "operator",
          "type": "address"
        },
        {
          "internalType": "bool",
          "name": "approved",
          "type": "bool"
        }
      ],
      "name": "setApprovalForAll",
      "outputs": [],
      "stateMutability": "nonpayable",
      "type": "function"
    },
    {
      "inputs": [
        {
          "internalType": "bytes4",
          "name": "interfaceId",
          "type": "bytes4"
        }
      ],
      "name": "supportsInterface",
      "outputs": [
        {
          "internalType": "bool",
          "name": "",
          "type": "bool"
        }
      ],
      "stateMutability": "view",
      "type": "function"
    },
    {
      "inputs": [],
      "name": "symbol",
      "outputs": [
        {
          "internalType": "string",
          "name": "",
          "type": "string"
        }
      ],
      "stateMutability": "view",
      "type": "function"
    },
    {
      "inputs": [
        {
          "internalType": "uint256",
          "name": "tokenId",
          "type": "uint256"
        }
      ],
      "name": "tokenURI",
      "outputs": [
        {
          "internalType": "string",
          "name": "",
          "type": "string"
        }
      ],
      "stateMutability": "view",
      "type": "function"
    },
    {
      "inputs": [
        {
          "internalType": "address",
          "name": "from",
          "type": "address"
        },
        {
          "internalType": "address",
          "name": "to",
          "type": "address"
        },
        {
          "internalType": "uint256",
          "name": "tokenId",
          "type": "uint256"
        }
      ],
      "name": "transferFrom",
      "outputs": [],
      "stateMutability": "nonpayable",
      "type": "function"
    },
    {
      "inputs": [
        {
          "internalType": "uint256",
          "name": "",
          "type": "uint256"
        }
      ],
      "name": "viewableMessage",
      "outputs": [
        {
          "internalType": "string",
          "name": "message",
          "type": "string"
        },
        {
          "internalType": "string",
          "name": "textColor",
          "type": "string"
        },
        {
          "internalType": "string",
          "name": "backgroundColor",
          "type": "string"
        }
      ],
      "stateMutability": "view",
      "type": "function"
    }
  ],
  "bytecode": "0x60806040523480156200001157600080fd5b506040518060400160405280600b81526020017f48696d69747375204e46540000000000000000000000000000000000000000008152506040518060400160405280600a81526020017f736563726574204e465400000000000000000000000000000000000000000000815250816000908051906020019062000096929190620001cf565b508060019080519060200190620000af929190620001cf565b505050620000fd6040518060400160405280600b81526020017f64796e616d6963206e66740000000000000000000000000000000000000000008152506200010360201b620010741760201c565b620003ac565b620001a3816040516024016200011a9190620002c0565b6040516020818303038152906040527f41304fac000000000000000000000000000000000000000000000000000000007bffffffffffffffffffffffffffffffffffffffffffffffffffffffff19166020820180517bffffffffffffffffffffffffffffffffffffffffffffffffffffffff8381831617835250505050620001a660201b60201c565b50565b60008151905060006a636f6e736f6c652e6c6f679050602083016000808483855afa5050505050565b828054620001dd9062000336565b90600052602060002090601f0160209004810192826200020157600085556200024d565b82601f106200021c57805160ff19168380011785556200024d565b828001600101855582156200024d579182015b828111156200024c5782518255916020019190600101906200022f565b5b5090506200025c919062000260565b5090565b5b808211156200027b57600081600090555060010162000261565b5090565b60006200028c82620002e4565b620002988185620002ef565b9350620002aa81856020860162000300565b620002b5816200039b565b840191505092915050565b60006020820190508181036000830152620002dc81846200027f565b905092915050565b600081519050919050565b600082825260208201905092915050565b60005b838110156200032057808201518184015260208101905062000303565b8381111562000330576000848401525b50505050565b600060028204905060018216806200034f57607f821691505b602082108114156200036657620003656200036c565b5b50919050565b7f4e487b7100000000000000000000000000000000000000000000000000000000600052602260045260246000fd5b6000601f19601f8301169050919050565b613caf80620003bc6000396000f3fe608060405234801561001057600080fd5b50600436106100f55760003560e01c80636352211e11610097578063a22cb46511610066578063a22cb46514610298578063b88d4fde146102b4578063c87b56dd146102d0578063e985e9c514610300576100f5565b80636352211e146101e857806370a0823114610218578063953c73bf1461024857806395d89b411461027a576100f5565b8063095ea7b3116100d3578063095ea7b314610178578063131c92a11461019457806323b872dd146101b057806342842e0e146101cc576100f5565b806301ffc9a7146100fa57806306fdde031461012a578063081812fc14610148575b600080fd5b610114600480360381019061010f91906126ac565b610330565b6040516101219190612d7a565b60405180910390f35b610132610412565b60405161013f9190612d95565b60405180910390f35b610162600480360381019061015d91906127c1565b6104a4565b60405161016f9190612cea565b60405180910390f35b610192600480360381019061018d9190612670565b610529565b005b6101ae60048036038101906101a991906126fe565b610641565b005b6101ca60048036038101906101c5919061256a565b61082e565b005b6101e660048036038101906101e1919061256a565b61088e565b005b61020260048036038101906101fd91906127c1565b6108ae565b60405161020f9190612cea565b60405180910390f35b610232600480360381019061022d9190612505565b610960565b60405161023f9190613041565b60405180910390f35b610262600480360381019061025d91906127c1565b610a18565b60405161027193929190612db7565b60405180910390f35b610282610bda565b60405161028f9190612d95565b60405180910390f35b6102b260048036038101906102ad9190612634565b610c6c565b005b6102ce60048036038101906102c991906125b9565b610c82565b005b6102ea60048036038101906102e591906127c1565b610ce4565b6040516102f79190612d95565b60405180910390f35b61031a6004803603810190610315919061252e565b610fe0565b6040516103279190612d7a565b60405180910390f35b60007f80ac58cd000000000000000000000000000000000000000000000000000000007bffffffffffffffffffffffffffffffffffffffffffffffffffffffff1916827bffffffffffffffffffffffffffffffffffffffffffffffffffffffff191614806103fb57507f5b5e139f000000000000000000000000000000000000000000000000000000007bffffffffffffffffffffffffffffffffffffffffffffffffffffffff1916827bffffffffffffffffffffffffffffffffffffffffffffffffffffffff1916145b8061040b575061040a8261110d565b5b9050919050565b606060008054610421906132f1565b80601f016020809104026020016040519081016040528092919081815260200182805461044d906132f1565b801561049a5780601f1061046f5761010080835404028352916020019161049a565b820191906000526020600020905b81548152906001019060200180831161047d57829003601f168201915b5050505050905090565b60006104af82611177565b6104ee576040517f08c379a00000000000000000000000000000000000000000000000000000000081526004016104e590612fa1565b60405180910390fd5b6004600083815260200190815260200160002060009054906101000a900473ffffffffffffffffffffffffffffffffffffffff169050919050565b6000610534826108ae565b90508073ffffffffffffffffffffffffffffffffffffffff168373ffffffffffffffffffffffffffffffffffffffff1614156105a5576040517f08c379a000000000000000000000000000000000000000000000000000000000815260040161059c90613001565b60405180910390fd5b8073ffffffffffffffffffffffffffffffffffffffff166105c46111e3565b73ffffffffffffffffffffffffffffffffffffffff1614806105f357506105f2816105ed6111e3565b610fe0565b5b610632576040517f08c379a000000000000000000000000000000000000000000000000000000000815260040161062990612ee1565b60405180910390fd5b61063c83836111eb565b505050565b600061064d60076112a4565b905061065933826112b2565b600060405180606001604052808781526020018581526020018481525090506000604051806060016040528087815260200186815260200185815250905060006106a2836112d0565b90506106e26040518060400160405280600a81526020017f2d2d2d6d696e742d2d2d00000000000000000000000000000000000000000000815250611074565b6106eb81611074565b6107296040518060400160405280600a81526020017f2d2d2d6d696e742d2d2d00000000000000000000000000000000000000000000815250611074565b6107338482611348565b81600860008681526020019081526020016000206000820151816000019080519060200190610763929190612329565b506020820151816001019080519060200190610780929190612329565b50604082015181600201908051906020019061079d929190612329565b509050506107e16040518060400160405280601281526020017f49443a25732c20416464726573733a202573000000000000000000000000000081525085336113bc565b6107eb600761145b565b7f220ec096fff32ded1f996c317215383f61ff42601a1d402671aae94d4044d3bd338560405161081c929190612d51565b60405180910390a15050505050505050565b61083f6108396111e3565b82611471565b61087e576040517f08c379a000000000000000000000000000000000000000000000000000000000815260040161087590613021565b60405180910390fd5b61088983838361154f565b505050565b6108a983838360405180602001604052806000815250610c82565b505050565b6000806002600084815260200190815260200160002060009054906101000a900473ffffffffffffffffffffffffffffffffffffffff169050600073ffffffffffffffffffffffffffffffffffffffff168173ffffffffffffffffffffffffffffffffffffffff161415610957576040517f08c379a000000000000000000000000000000000000000000000000000000000815260040161094e90612f21565b60405180910390fd5b80915050919050565b60008073ffffffffffffffffffffffffffffffffffffffff168273ffffffffffffffffffffffffffffffffffffffff1614156109d1576040517f08c379a00000000000000000000000000000000000000000000000000000000081526004016109c890612f01565b60405180910390fd5b600360008373ffffffffffffffffffffffffffffffffffffffff1673ffffffffffffffffffffffffffffffffffffffff168152602001908152602001600020549050919050565b6008602052806000526040600020600091509050806000018054610a3b906132f1565b80601f0160208091040260200160405190810160405280929190818152602001828054610a67906132f1565b8015610ab45780601f10610a8957610100808354040283529160200191610ab4565b820191906000526020600020905b815481529060010190602001808311610a9757829003601f168201915b505050505090806001018054610ac9906132f1565b80601f0160208091040260200160405190810160405280929190818152602001828054610af5906132f1565b8015610b425780601f10610b1757610100808354040283529160200191610b42565b820191906000526020600020905b815481529060010190602001808311610b2557829003601f168201915b505050505090806002018054610b57906132f1565b80601f0160208091040260200160405190810160405280929190818152602001828054610b83906132f1565b8015610bd05780601f10610ba557610100808354040283529160200191610bd0565b820191906000526020600020905b815481529060010190602001808311610bb357829003601f168201915b5050505050905083565b606060018054610be9906132f1565b80601f0160208091040260200160405190810160405280929190818152602001828054610c15906132f1565b8015610c625780601f10610c3757610100808354040283529160200191610c62565b820191906000526020600020905b815481529060010190602001808311610c4557829003601f168201915b5050505050905090565b610c7e610c776111e3565b83836117ab565b5050565b610c93610c8d6111e3565b83611471565b610cd2576040517f08c379a0000000000000000000000000000000000000000000000000000000008152600401610cc990613021565b60405180910390fd5b610cde84848484611918565b50505050565b6060610cef82611177565b610d2e576040517f08c379a0000000000000000000000000000000000000000000000000000000008152600401610d2590612fe1565b60405180910390fd5b3373ffffffffffffffffffffffffffffffffffffffff16610d4e836108ae565b73ffffffffffffffffffffffffffffffffffffffff161415610db857610da86040518060400160405280601381526020017f6d73672073656e646572206973206f776e657200000000000000000000000000815250611074565b610db182611974565b9050610fdb565b610df66040518060400160405280601781526020017f6d73672073656e646572206973206e6f74206f776e6572000000000000000000815250611074565b6000610fd460086000858152602001908152602001600020604051806060016040529081600082018054610e29906132f1565b80601f0160208091040260200160405190810160405280929190818152602001828054610e55906132f1565b8015610ea25780601f10610e7757610100808354040283529160200191610ea2565b820191906000526020600020905b815481529060010190602001808311610e8557829003601f168201915b50505050508152602001600182018054610ebb906132f1565b80601f0160208091040260200160405190810160405280929190818152602001828054610ee7906132f1565b8015610f345780601f10610f0957610100808354040283529160200191610f34565b820191906000526020600020905b815481529060010190602001808311610f1757829003601f168201915b50505050508152602001600282018054610f4d906132f1565b80601f0160208091040260200160405190810160405280929190818152602001828054610f79906132f1565b8015610fc65780601f10610f9b57610100808354040283529160200191610fc6565b820191906000526020600020905b815481529060010190602001808311610fa957829003601f168201915b5050505050815250506112d0565b9050809150505b919050565b6000600560008473ffffffffffffffffffffffffffffffffffffffff1673ffffffffffffffffffffffffffffffffffffffff16815260200190815260200160002060008373ffffffffffffffffffffffffffffffffffffffff1673ffffffffffffffffffffffffffffffffffffffff16815260200190815260200160002060009054906101000a900460ff16905092915050565b61110a816040516024016110889190612d95565b6040516020818303038152906040527f41304fac000000000000000000000000000000000000000000000000000000007bffffffffffffffffffffffffffffffffffffffffffffffffffffffff19166020820180517bffffffffffffffffffffffffffffffffffffffffffffffffffffffff8381831617835250505050611ac6565b50565b60007f01ffc9a7000000000000000000000000000000000000000000000000000000007bffffffffffffffffffffffffffffffffffffffffffffffffffffffff1916827bffffffffffffffffffffffffffffffffffffffffffffffffffffffff1916149050919050565b60008073ffffffffffffffffffffffffffffffffffffffff166002600084815260200190815260200160002060009054906101000a900473ffffffffffffffffffffffffffffffffffffffff1673ffffffffffffffffffffffffffffffffffffffff1614159050919050565b600033905090565b816004600083815260200190815260200160002060006101000a81548173ffffffffffffffffffffffffffffffffffffffff021916908373ffffffffffffffffffffffffffffffffffffffff160217905550808273ffffffffffffffffffffffffffffffffffffffff1661125e836108ae565b73ffffffffffffffffffffffffffffffffffffffff167f8c5be1e5ebec7d5bd14f71427d1e84f3dd0314c0f7b2291e5b200ac8c7c3b92560405160405180910390a45050565b600081600001549050919050565b6112cc828260405180602001604052806000815250611aef565b5050565b606060006112dd83611b4a565b9050600061131784600001516112f284611b83565b604051602001611303929190612c26565b604051602081830303815290604052611b83565b905060008160405160200161132c9190612c6b565b6040516020818303038152906040529050809350505050919050565b61135182611177565b611390576040517f08c379a000000000000000000000000000000000000000000000000000000000815260040161138790612f41565b60405180910390fd5b806006600084815260200190815260200160002090805190602001906113b7929190612329565b505050565b6114568383836040516024016113d493929190612e03565b6040516020818303038152906040527fe3849f79000000000000000000000000000000000000000000000000000000007bffffffffffffffffffffffffffffffffffffffffffffffffffffffff19166020820180517bffffffffffffffffffffffffffffffffffffffffffffffffffffffff8381831617835250505050611ac6565b505050565b6001816000016000828254019250508190555050565b600061147c82611177565b6114bb576040517f08c379a00000000000000000000000000000000000000000000000000000000081526004016114b290612ec1565b60405180910390fd5b60006114c6836108ae565b90508073ffffffffffffffffffffffffffffffffffffffff168473ffffffffffffffffffffffffffffffffffffffff16148061153557508373ffffffffffffffffffffffffffffffffffffffff1661151d846104a4565b73ffffffffffffffffffffffffffffffffffffffff16145b8061154657506115458185610fe0565b5b91505092915050565b8273ffffffffffffffffffffffffffffffffffffffff1661156f826108ae565b73ffffffffffffffffffffffffffffffffffffffff16146115c5576040517f08c379a00000000000000000000000000000000000000000000000000000000081526004016115bc90612fc1565b60405180910390fd5b600073ffffffffffffffffffffffffffffffffffffffff168273ffffffffffffffffffffffffffffffffffffffff161415611635576040517f08c379a000000000000000000000000000000000000000000000000000000000815260040161162c90612e81565b60405180910390fd5b611640838383611d41565b61164b6000826111eb565b6001600360008573ffffffffffffffffffffffffffffffffffffffff1673ffffffffffffffffffffffffffffffffffffffff168152602001908152602001600020600082825461169b9190613207565b925050819055506001600360008473ffffffffffffffffffffffffffffffffffffffff1673ffffffffffffffffffffffffffffffffffffffff16815260200190815260200160002060008282546116f29190613126565b92505081905550816002600083815260200190815260200160002060006101000a81548173ffffffffffffffffffffffffffffffffffffffff021916908373ffffffffffffffffffffffffffffffffffffffff160217905550808273ffffffffffffffffffffffffffffffffffffffff168473ffffffffffffffffffffffffffffffffffffffff167fddf252ad1be2c89b69c2b068fc378daa952ba7f163c4a11628f55a4df523b3ef60405160405180910390a4505050565b8173ffffffffffffffffffffffffffffffffffffffff168373ffffffffffffffffffffffffffffffffffffffff16141561181a576040517f08c379a000000000000000000000000000000000000000000000000000000000815260040161181190612ea1565b60405180910390fd5b80600560008573ffffffffffffffffffffffffffffffffffffffff1673ffffffffffffffffffffffffffffffffffffffff16815260200190815260200160002060008473ffffffffffffffffffffffffffffffffffffffff1673ffffffffffffffffffffffffffffffffffffffff16815260200190815260200160002060006101000a81548160ff0219169083151502179055508173ffffffffffffffffffffffffffffffffffffffff168373ffffffffffffffffffffffffffffffffffffffff167f17307eab39ab6107e8899845ad3d59bd9653f200f220920489ca2b5937696c318360405161190b9190612d7a565b60405180910390a3505050565b61192384848461154f565b61192f84848484611d46565b61196e576040517f08c379a000000000000000000000000000000000000000000000000000000000815260040161196590612e41565b60405180910390fd5b50505050565b606061197f82611177565b6119be576040517f08c379a00000000000000000000000000000000000000000000000000000000081526004016119b590612f81565b60405180910390fd5b60006006600084815260200190815260200160002080546119de906132f1565b80601f0160208091040260200160405190810160405280929190818152602001828054611a0a906132f1565b8015611a575780601f10611a2c57610100808354040283529160200191611a57565b820191906000526020600020905b815481529060010190602001808311611a3a57829003601f168201915b505050505090506000611a68611edd565b9050600081511415611a7e578192505050611ac1565b600082511115611ab3578082604051602001611a9b929190612c02565b60405160208183030381529060405292505050611ac1565b611abc84611ef4565b925050505b919050565b60008151905060006a636f6e736f6c652e6c6f679050602083016000808483855afa5050505050565b611af98383611f9b565b611b066000848484611d46565b611b45576040517f08c379a0000000000000000000000000000000000000000000000000000000008152600401611b3c90612e41565b60405180910390fd5b505050565b6060816020015182604001518360000151604051602001611b6d93929190612c8d565b6040516020818303038152906040529050919050565b60606000825190506000811415611bac5760405180602001604052806000815250915050611d3c565b60006003600283611bbd9190613126565b611bc7919061317c565b6004611bd391906131ad565b90506000602082611be49190613126565b67ffffffffffffffff811115611c23577f4e487b7100000000000000000000000000000000000000000000000000000000600052604160045260246000fd5b6040519080825280601f01601f191660200182016040528015611c555781602001600182028036833780820191505090505b5090506000604051806060016040528060408152602001613c3a604091399050600181016020830160005b86811015611cf95760038101905062ffffff818a015116603f8160121c168401518060081b905060ff603f83600c1c1686015116810190508060081b905060ff603f8360061c1686015116810190508060081b905060ff603f831686015116810190508060e01b90508084526004840193505050611c80565b506003860660018114611d135760028114611d2357611d2e565b613d3d60f01b6002830352611d2e565b603d60f81b60018303525b508484525050819450505050505b919050565b505050565b6000611d678473ffffffffffffffffffffffffffffffffffffffff16612169565b15611ed0578373ffffffffffffffffffffffffffffffffffffffff1663150b7a02611d906111e3565b8786866040518563ffffffff1660e01b8152600401611db29493929190612d05565b602060405180830381600087803b158015611dcc57600080fd5b505af1925050508015611dfd57506040513d601f19601f82011682018060405250810190611dfa91906126d5565b60015b611e80573d8060008114611e2d576040519150601f19603f3d011682016040523d82523d6000602084013e611e32565b606091505b50600081511415611e78576040517f08c379a0000000000000000000000000000000000000000000000000000000008152600401611e6f90612e41565b60405180910390fd5b805181602001fd5b63150b7a0260e01b7bffffffffffffffffffffffffffffffffffffffffffffffffffffffff1916817bffffffffffffffffffffffffffffffffffffffffffffffffffffffff191614915050611ed5565b600190505b949350505050565b606060405180602001604052806000815250905090565b6060611eff82611177565b611f3e576040517f08c379a0000000000000000000000000000000000000000000000000000000008152600401611f3590612fe1565b60405180910390fd5b6000611f48611edd565b90506000815111611f685760405180602001604052806000815250611f93565b80611f728461217c565b604051602001611f83929190612c02565b6040516020818303038152906040525b915050919050565b600073ffffffffffffffffffffffffffffffffffffffff168273ffffffffffffffffffffffffffffffffffffffff16141561200b576040517f08c379a000000000000000000000000000000000000000000000000000000000815260040161200290612f61565b60405180910390fd5b61201481611177565b15612054576040517f08c379a000000000000000000000000000000000000000000000000000000000815260040161204b90612e61565b60405180910390fd5b61206060008383611d41565b6001600360008473ffffffffffffffffffffffffffffffffffffffff1673ffffffffffffffffffffffffffffffffffffffff16815260200190815260200160002060008282546120b09190613126565b92505081905550816002600083815260200190815260200160002060006101000a81548173ffffffffffffffffffffffffffffffffffffffff021916908373ffffffffffffffffffffffffffffffffffffffff160217905550808273ffffffffffffffffffffffffffffffffffffffff16600073ffffffffffffffffffffffffffffffffffffffff167fddf252ad1be2c89b69c2b068fc378daa952ba7f163c4a11628f55a4df523b3ef60405160405180910390a45050565b600080823b905060008111915050919050565b606060008214156121c4576040518060400160405280600181526020017f30000000000000000000000000000000000000000000000000000000000000008152509050612324565b600082905060005b600082146121f65780806121df90613354565b915050600a826121ef919061317c565b91506121cc565b60008167ffffffffffffffff811115612238577f4e487b7100000000000000000000000000000000000000000000000000000000600052604160045260246000fd5b6040519080825280601f01601f19166020018201604052801561226a5781602001600182028036833780820191505090505b5090505b6000851461231d576001826122839190613207565b9150600a85612292919061339d565b603061229e9190613126565b60f81b8183815181106122da577f4e487b7100000000000000000000000000000000000000000000000000000000600052603260045260246000fd5b60200101907effffffffffffffffffffffffffffffffffffffffffffffffffffffffffffff1916908160001a905350600a85612316919061317c565b945061226e565b8093505050505b919050565b828054612335906132f1565b90600052602060002090601f016020900481019282612357576000855561239e565b82601f1061237057805160ff191683800117855561239e565b8280016001018555821561239e579182015b8281111561239d578251825591602001919060010190612382565b5b5090506123ab91906123af565b5090565b5b808211156123c85760008160009055506001016123b0565b5090565b60006123df6123da84613081565b61305c565b9050828152602081018484840111156123f757600080fd5b6124028482856132af565b509392505050565b600061241d612418846130b2565b61305c565b90508281526020810184848401111561243557600080fd5b6124408482856132af565b509392505050565b60008135905061245781613bdd565b92915050565b60008135905061246c81613bf4565b92915050565b60008135905061248181613c0b565b92915050565b60008151905061249681613c0b565b92915050565b600082601f8301126124ad57600080fd5b81356124bd8482602086016123cc565b91505092915050565b600082601f8301126124d757600080fd5b81356124e784826020860161240a565b91505092915050565b6000813590506124ff81613c22565b92915050565b60006020828403121561251757600080fd5b600061252584828501612448565b91505092915050565b6000806040838503121561254157600080fd5b600061254f85828601612448565b925050602061256085828601612448565b9150509250929050565b60008060006060848603121561257f57600080fd5b600061258d86828701612448565b935050602061259e86828701612448565b92505060406125af868287016124f0565b9150509250925092565b600080600080608085870312156125cf57600080fd5b60006125dd87828801612448565b94505060206125ee87828801612448565b93505060406125ff878288016124f0565b925050606085013567ffffffffffffffff81111561261c57600080fd5b6126288782880161249c565b91505092959194509250565b6000806040838503121561264757600080fd5b600061265585828601612448565b92505060206126668582860161245d565b9150509250929050565b6000806040838503121561268357600080fd5b600061269185828601612448565b92505060206126a2858286016124f0565b9150509250929050565b6000602082840312156126be57600080fd5b60006126cc84828501612472565b91505092915050565b6000602082840312156126e757600080fd5b60006126f584828501612487565b91505092915050565b6000806000806080858703121561271457600080fd5b600085013567ffffffffffffffff81111561272e57600080fd5b61273a878288016124c6565b945050602085013567ffffffffffffffff81111561275757600080fd5b612763878288016124c6565b935050604085013567ffffffffffffffff81111561278057600080fd5b61278c878288016124c6565b925050606085013567ffffffffffffffff8111156127a957600080fd5b6127b5878288016124c6565b91505092959194509250565b6000602082840312156127d357600080fd5b60006127e1848285016124f0565b91505092915050565b6127f38161323b565b82525050565b6128028161324d565b82525050565b6000612813826130e3565b61281d81856130f9565b935061282d8185602086016132be565b6128368161348a565b840191505092915050565b600061284c826130ee565b612856818561310a565b93506128668185602086016132be565b61286f8161348a565b840191505092915050565b6000612885826130ee565b61288f818561311b565b935061289f8185602086016132be565b80840191505092915050565b60006128b860328361310a565b91506128c38261349b565b604082019050919050565b60006128db601c8361310a565b91506128e6826134ea565b602082019050919050565b60006128fe60248361310a565b915061290982613513565b604082019050919050565b600061292160198361310a565b915061292c82613562565b602082019050919050565b600061294460578361311b565b915061294f8261358b565b605782019050919050565b6000612967602c8361310a565b915061297282613600565b604082019050919050565b600061298a600d8361311b565b91506129958261364f565b600d82019050919050565b60006129ad60388361310a565b91506129b882613678565b604082019050919050565b60006129d0602a8361310a565b91506129db826136c7565b604082019050919050565b60006129f360298361310a565b91506129fe82613716565b604082019050919050565b6000612a16602e8361310a565b9150612a2182613765565b604082019050919050565b6000612a3960028361311b565b9150612a44826137b4565b600282019050919050565b6000612a5c60208361310a565b9150612a67826137dd565b602082019050919050565b6000612a7f60318361310a565b9150612a8a82613806565b604082019050919050565b6000612aa2602c8361310a565b9150612aad82613855565b604082019050919050565b6000612ac560298361310a565b9150612ad0826138a4565b604082019050919050565b6000612ae8602f8361310a565b9150612af3826138f3565b604082019050919050565b6000612b0b600a8361311b565b9150612b1682613942565b600a82019050919050565b6000612b2e60578361311b565b9150612b398261396b565b605782019050919050565b6000612b5160778361311b565b9150612b5c826139e0565b607782019050919050565b6000612b7460218361310a565b9150612b7f82613a7b565b604082019050919050565b6000612b97601d8361311b565b9150612ba282613aca565b601d82019050919050565b6000612bba60318361310a565b9150612bc582613af3565b604082019050919050565b6000612bdd60778361311b565b9150612be882613b42565b607782019050919050565b612bfc816132a5565b82525050565b6000612c0e828561287a565b9150612c1a828461287a565b91508190509392505050565b6000612c3182612afe565b9150612c3d828561287a565b9150612c4882612b44565b9150612c54828461287a565b9150612c5f82612a2c565b91508190509392505050565b6000612c7682612b8a565b9150612c82828461287a565b915081905092915050565b6000612c9882612bd0565b9150612ca4828661287a565b9150612caf82612937565b9150612cbb828561287a565b9150612cc682612b21565b9150612cd2828461287a565b9150612cdd8261297d565b9150819050949350505050565b6000602082019050612cff60008301846127ea565b92915050565b6000608082019050612d1a60008301876127ea565b612d2760208301866127ea565b612d346040830185612bf3565b8181036060830152612d468184612808565b905095945050505050565b6000604082019050612d6660008301856127ea565b612d736020830184612bf3565b9392505050565b6000602082019050612d8f60008301846127f9565b92915050565b60006020820190508181036000830152612daf8184612841565b905092915050565b60006060820190508181036000830152612dd18186612841565b90508181036020830152612de58185612841565b90508181036040830152612df98184612841565b9050949350505050565b60006060820190508181036000830152612e1d8186612841565b9050612e2c6020830185612bf3565b612e3960408301846127ea565b949350505050565b60006020820190508181036000830152612e5a816128ab565b9050919050565b60006020820190508181036000830152612e7a816128ce565b9050919050565b60006020820190508181036000830152612e9a816128f1565b9050919050565b60006020820190508181036000830152612eba81612914565b9050919050565b60006020820190508181036000830152612eda8161295a565b9050919050565b60006020820190508181036000830152612efa816129a0565b9050919050565b60006020820190508181036000830152612f1a816129c3565b9050919050565b60006020820190508181036000830152612f3a816129e6565b9050919050565b60006020820190508181036000830152612f5a81612a09565b9050919050565b60006020820190508181036000830152612f7a81612a4f565b9050919050565b60006020820190508181036000830152612f9a81612a72565b9050919050565b60006020820190508181036000830152612fba81612a95565b9050919050565b60006020820190508181036000830152612fda81612ab8565b9050919050565b60006020820190508181036000830152612ffa81612adb565b9050919050565b6000602082019050818103600083015261301a81612b67565b9050919050565b6000602082019050818103600083015261303a81612bad565b9050919050565b60006020820190506130566000830184612bf3565b92915050565b6000613066613077565b90506130728282613323565b919050565b6000604051905090565b600067ffffffffffffffff82111561309c5761309b61345b565b5b6130a58261348a565b9050602081019050919050565b600067ffffffffffffffff8211156130cd576130cc61345b565b5b6130d68261348a565b9050602081019050919050565b600081519050919050565b600081519050919050565b600082825260208201905092915050565b600082825260208201905092915050565b600081905092915050565b6000613131826132a5565b915061313c836132a5565b9250827fffffffffffffffffffffffffffffffffffffffffffffffffffffffffffffffff03821115613171576131706133ce565b5b828201905092915050565b6000613187826132a5565b9150613192836132a5565b9250826131a2576131a16133fd565b5b828204905092915050565b60006131b8826132a5565b91506131c3836132a5565b9250817fffffffffffffffffffffffffffffffffffffffffffffffffffffffffffffffff04831182151516156131fc576131fb6133ce565b5b828202905092915050565b6000613212826132a5565b915061321d836132a5565b9250828210156132305761322f6133ce565b5b828203905092915050565b600061324682613285565b9050919050565b60008115159050919050565b60007fffffffff0000000000000000000000000000000000000000000000000000000082169050919050565b600073ffffffffffffffffffffffffffffffffffffffff82169050919050565b6000819050919050565b82818337600083830152505050565b60005b838110156132dc5780820151818401526020810190506132c1565b838111156132eb576000848401525b50505050565b6000600282049050600182168061330957607f821691505b6020821081141561331d5761331c61342c565b5b50919050565b61332c8261348a565b810181811067ffffffffffffffff8211171561334b5761334a61345b565b5b80604052505050565b600061335f826132a5565b91507fffffffffffffffffffffffffffffffffffffffffffffffffffffffffffffffff821415613392576133916133ce565b5b600182019050919050565b60006133a8826132a5565b91506133b3836132a5565b9250826133c3576133c26133fd565b5b828206905092915050565b7f4e487b7100000000000000000000000000000000000000000000000000000000600052601160045260246000fd5b7f4e487b7100000000000000000000000000000000000000000000000000000000600052601260045260246000fd5b7f4e487b7100000000000000000000000000000000000000000000000000000000600052602260045260246000fd5b7f4e487b7100000000000000000000000000000000000000000000000000000000600052604160045260246000fd5b6000601f19601f8301169050919050565b7f4552433732313a207472616e7366657220746f206e6f6e20455243373231526560008201527f63656976657220696d706c656d656e7465720000000000000000000000000000602082015250565b7f4552433732313a20746f6b656e20616c7265616479206d696e74656400000000600082015250565b7f4552433732313a207472616e7366657220746f20746865207a65726f2061646460008201527f7265737300000000000000000000000000000000000000000000000000000000602082015250565b7f4552433732313a20617070726f766520746f2063616c6c657200000000000000600082015250565b7f3b20666f6e742d66616d696c793a2073657269663b20666f6e742d73697a653a60008201527f20323470783b207d3c2f7374796c653e3c726563742077696474683d2731303060208201527f2527206865696768743d2731303025272066696c6c3d27000000000000000000604082015250565b7f4552433732313a206f70657261746f7220717565727920666f72206e6f6e657860008201527f697374656e7420746f6b656e0000000000000000000000000000000000000000602082015250565b7f3c2f746578743e3c2f7376673e00000000000000000000000000000000000000600082015250565b7f4552433732313a20617070726f76652063616c6c6572206973206e6f74206f7760008201527f6e6572206e6f7220617070726f76656420666f7220616c6c0000000000000000602082015250565b7f4552433732313a2062616c616e636520717565727920666f7220746865207a6560008201527f726f206164647265737300000000000000000000000000000000000000000000602082015250565b7f4552433732313a206f776e657220717565727920666f72206e6f6e657869737460008201527f656e7420746f6b656e0000000000000000000000000000000000000000000000602082015250565b7f45524337323155524953746f726167653a2055524920736574206f66206e6f6e60008201527f6578697374656e7420746f6b656e000000000000000000000000000000000000602082015250565b7f227d000000000000000000000000000000000000000000000000000000000000600082015250565b7f4552433732313a206d696e7420746f20746865207a65726f2061646472657373600082015250565b7f45524337323155524953746f726167653a2055524920717565727920666f722060008201527f6e6f6e6578697374656e7420746f6b656e000000000000000000000000000000602082015250565b7f4552433732313a20617070726f76656420717565727920666f72206e6f6e657860008201527f697374656e7420746f6b656e0000000000000000000000000000000000000000602082015250565b7f4552433732313a207472616e73666572206f6620746f6b656e2074686174206960008201527f73206e6f74206f776e0000000000000000000000000000000000000000000000602082015250565b7f4552433732314d657461646174613a2055524920717565727920666f72206e6f60008201527f6e6578697374656e7420746f6b656e0000000000000000000000000000000000602082015250565b7f7b226e616d65223a202200000000000000000000000000000000000000000000600082015250565b7f27202f3e3c7465787420783d273530252720793d273530252720636c6173733d60008201527f27626173652720646f6d696e616e742d626173656c696e653d276d6964646c6560208201527f2720746578742d616e63686f723d276d6964646c65273e000000000000000000604082015250565b7f222c20226465736372697074696f6e223a2022736563726574204e46542e206f60008201527f6e6c7920746865206f776e6572206f662061204e46542063616e20736565206160208201527f207370656369616c206d657373616765222c2022696d616765223a202264617460408201527f613a696d6167652f7376672b786d6c3b6261736536342c000000000000000000606082015250565b7f4552433732313a20617070726f76616c20746f2063757272656e74206f776e6560008201527f7200000000000000000000000000000000000000000000000000000000000000602082015250565b7f646174613a6170706c69636174696f6e2f6a736f6e3b6261736536342c000000600082015250565b7f4552433732313a207472616e736665722063616c6c6572206973206e6f74206f60008201527f776e6572206e6f7220617070726f766564000000000000000000000000000000602082015250565b7f3c73766720786d6c6e733d27687474703a2f2f7777772e77332e6f72672f323060008201527f30302f73766727207072657365727665417370656374526174696f3d27784d6960208201527f6e594d696e206d656574272076696577426f783d27302030203335302033353060408201527f273e3c7374796c653e2e62617365207b2066696c6c3a20000000000000000000606082015250565b613be68161323b565b8114613bf157600080fd5b50565b613bfd8161324d565b8114613c0857600080fd5b50565b613c1481613259565b8114613c1f57600080fd5b50565b613c2b816132a5565b8114613c3657600080fd5b5056fe4142434445464748494a4b4c4d4e4f505152535455565758595a6162636465666768696a6b6c6d6e6f707172737475767778797a303132333435363738392b2fa2646970667358221220da2df9ba956b38af3cff4b131da3fc7636929c9934003344ce90a2ea6144887d64736f6c63430008040033",
  "linkReferences": {},
  "deployedLinkReferences": {}
}