{
  "_format": "hh-sol-artifact-1",
  "contractName": "DynamicNFT",
  "sourceName": "contracts/DynamicNFT.sol",
  "abi": [
    {
      "inputs": [],
      "stateMutability": "nonpayable",
      "type": "constructor"
    },
    {
      "anonymous": false,
      "inputs": [
        {
          "indexed": true,
          "internalType": "address",
          "name": "owner",
          "type": "address"
        },
        {
          "indexed": true,
          "internalType": "address",
          "name": "approved",
          "type": "address"
        },
        {
          "indexed": true,
          "internalType": "uint256",
          "name": "tokenId",
          "type": "uint256"
        }
      ],
      "name": "Approval",
      "type": "event"
    },
    {
      "anonymous": false,
      "inputs": [
        {
          "indexed": true,
          "internalType": "address",
          "name": "owner",
          "type": "address"
        },
        {
          "indexed": true,
          "internalType": "address",
          "name": "operator",
          "type": "address"
        },
        {
          "indexed": false,
          "internalType": "bool",
          "name": "approved",
          "type": "bool"
        }
      ],
      "name": "ApprovalForAll",
      "type": "event"
    },
    {
      "anonymous": false,
      "inputs": [
        {
          "indexed": false,
          "internalType": "address",
          "name": "sender",
          "type": "address"
        },
        {
          "indexed": false,
          "internalType": "uint256",
          "name": "tokenId",
          "type": "uint256"
        }
      ],
      "name": "NewBasicNFTMinted",
      "type": "event"
    },
    {
      "anonymous": false,
      "inputs": [
        {
          "indexed": true,
          "internalType": "address",
          "name": "from",
          "type": "address"
        },
        {
          "indexed": true,
          "internalType": "address",
          "name": "to",
          "type": "address"
        },
        {
          "indexed": true,
          "internalType": "uint256",
          "name": "tokenId",
          "type": "uint256"
        }
      ],
      "name": "Transfer",
      "type": "event"
    },
    {
      "inputs": [
        {
          "internalType": "address",
          "name": "to",
          "type": "address"
        },
        {
          "internalType": "uint256",
          "name": "tokenId",
          "type": "uint256"
        }
      ],
      "name": "approve",
      "outputs": [],
      "stateMutability": "nonpayable",
      "type": "function"
    },
    {
      "inputs": [
        {
          "internalType": "address",
          "name": "owner",
          "type": "address"
        }
      ],
      "name": "balanceOf",
      "outputs": [
        {
          "internalType": "uint256",
          "name": "",
          "type": "uint256"
        }
      ],
      "stateMutability": "view",
      "type": "function"
    },
    {
      "inputs": [
        {
          "internalType": "uint256",
          "name": "tokenId",
          "type": "uint256"
        }
      ],
      "name": "getApproved",
      "outputs": [
        {
          "internalType": "address",
          "name": "",
          "type": "address"
        }
      ],
      "stateMutability": "view",
      "type": "function"
    },
    {
      "inputs": [
        {
          "internalType": "address",
          "name": "owner",
          "type": "address"
        },
        {
          "internalType": "address",
          "name": "operator",
          "type": "address"
        }
      ],
      "name": "isApprovedForAll",
      "outputs": [
        {
          "internalType": "bool",
          "name": "",
          "type": "bool"
        }
      ],
      "stateMutability": "view",
      "type": "function"
    },
    {
      "inputs": [
        {
          "internalType": "string",
          "name": "_ownerMsg",
          "type": "string"
        },
        {
          "internalType": "string",
          "name": "_viewableMsg",
          "type": "string"
        },
        {
          "internalType": "string",
          "name": "_textColor",
          "type": "string"
        },
        {
          "internalType": "string",
          "name": "_backgroundColor",
          "type": "string"
        }
      ],
      "name": "makeDyamicNFT",
      "outputs": [],
      "stateMutability": "nonpayable",
      "type": "function"
    },
    {
      "inputs": [],
      "name": "name",
      "outputs": [
        {
          "internalType": "string",
          "name": "",
          "type": "string"
        }
      ],
      "stateMutability": "view",
      "type": "function"
    },
    {
      "inputs": [
        {
          "internalType": "uint256",
          "name": "tokenId",
          "type": "uint256"
        }
      ],
      "name": "ownerOf",
      "outputs": [
        {
          "internalType": "address",
          "name": "",
          "type": "address"
        }
      ],
      "stateMutability": "view",
      "type": "function"
    },
    {
      "inputs": [
        {
          "internalType": "address",
          "name": "from",
          "type": "address"
        },
        {
          "internalType": "address",
          "name": "to",
          "type": "address"
        },
        {
          "internalType": "uint256",
          "name": "tokenId",
          "type": "uint256"
        }
      ],
      "name": "safeTransferFrom",
      "outputs": [],
      "stateMutability": "nonpayable",
      "type": "function"
    },
    {
      "inputs": [
        {
          "internalType": "address",
          "name": "from",
          "type": "address"
        },
        {
          "internalType": "address",
          "name": "to",
          "type": "address"
        },
        {
          "internalType": "uint256",
          "name": "tokenId",
          "type": "uint256"
        },
        {
          "internalType": "bytes",
          "name": "_data",
          "type": "bytes"
        }
      ],
      "name": "safeTransferFrom",
      "outputs": [],
      "stateMutability": "nonpayable",
      "type": "function"
    },
    {
      "inputs": [
        {
          "internalType": "address",
          "name": "operator",
          "type": "address"
        },
        {
          "internalType": "bool",
          "name": "approved",
          "type": "bool"
        }
      ],
      "name": "setApprovalForAll",
      "outputs": [],
      "stateMutability": "nonpayable",
      "type": "function"
    },
    {
      "inputs": [
        {
          "internalType": "bytes4",
          "name": "interfaceId",
          "type": "bytes4"
        }
      ],
      "name": "supportsInterface",
      "outputs": [
        {
          "internalType": "bool",
          "name": "",
          "type": "bool"
        }
      ],
      "stateMutability": "view",
      "type": "function"
    },
    {
      "inputs": [],
      "name": "symbol",
      "outputs": [
        {
          "internalType": "string",
          "name": "",
          "type": "string"
        }
      ],
      "stateMutability": "view",
      "type": "function"
    },
    {
      "inputs": [
        {
          "internalType": "uint256",
          "name": "tokenId",
          "type": "uint256"
        }
      ],
      "name": "tokenURI",
      "outputs": [
        {
          "internalType": "string",
          "name": "",
          "type": "string"
        }
      ],
      "stateMutability": "view",
      "type": "function"
    },
    {
      "inputs": [
        {
          "internalType": "address",
          "name": "from",
          "type": "address"
        },
        {
          "internalType": "address",
          "name": "to",
          "type": "address"
        },
        {
          "internalType": "uint256",
          "name": "tokenId",
          "type": "uint256"
        }
      ],
      "name": "transferFrom",
      "outputs": [],
      "stateMutability": "nonpayable",
      "type": "function"
    }
  ],
  "bytecode": "0x60806040523480156200001157600080fd5b506040518060400160405280600b81526020017f48696d69747375204e46540000000000000000000000000000000000000000008152506040518060400160405280600a81526020017f736563726574204e465400000000000000000000000000000000000000000000815250816000908051906020019062000096929190620001cf565b508060019080519060200190620000af929190620001cf565b505050620000fd6040518060400160405280600b81526020017f64796e616d6963206e66740000000000000000000000000000000000000000008152506200010360201b62000e751760201c565b620003ac565b620001a3816040516024016200011a9190620002c0565b6040516020818303038152906040527f41304fac000000000000000000000000000000000000000000000000000000007bffffffffffffffffffffffffffffffffffffffffffffffffffffffff19166020820180517bffffffffffffffffffffffffffffffffffffffffffffffffffffffff8381831617835250505050620001a660201b60201c565b50565b60008151905060006a636f6e736f6c652e6c6f679050602083016000808483855afa5050505050565b828054620001dd9062000336565b90600052602060002090601f0160209004810192826200020157600085556200024d565b82601f106200021c57805160ff19168380011785556200024d565b828001600101855582156200024d579182015b828111156200024c5782518255916020019190600101906200022f565b5b5090506200025c919062000260565b5090565b5b808211156200027b57600081600090555060010162000261565b5090565b60006200028c82620002e4565b620002988185620002ef565b9350620002aa81856020860162000300565b620002b5816200039b565b840191505092915050565b60006020820190508181036000830152620002dc81846200027f565b905092915050565b600081519050919050565b600082825260208201905092915050565b60005b838110156200032057808201518184015260208101905062000303565b8381111562000330576000848401525b50505050565b600060028204905060018216806200034f57607f821691505b602082108114156200036657620003656200036c565b5b50919050565b7f4e487b7100000000000000000000000000000000000000000000000000000000600052602260045260246000fd5b6000601f19601f8301169050919050565b613a6480620003bc6000396000f3fe608060405234801561001057600080fd5b50600436106100ea5760003560e01c80636352211e1161008c578063a22cb46511610066578063a22cb4651461025b578063b88d4fde14610277578063c87b56dd14610293578063e985e9c5146102c3576100ea565b80636352211e146101dd57806370a082311461020d57806395d89b411461023d576100ea565b8063095ea7b3116100c8578063095ea7b31461016d578063131c92a11461018957806323b872dd146101a557806342842e0e146101c1576100ea565b806301ffc9a7146100ef57806306fdde031461011f578063081812fc1461013d575b600080fd5b610109600480360381019061010491906124ad565b6102f3565b6040516101169190612b7b565b60405180910390f35b6101276103d5565b6040516101349190612b96565b60405180910390f35b610157600480360381019061015291906125c2565b610467565b6040516101649190612aeb565b60405180910390f35b61018760048036038101906101829190612471565b6104ec565b005b6101a3600480360381019061019e91906124ff565b610604565b005b6101bf60048036038101906101ba919061236b565b6107f1565b005b6101db60048036038101906101d6919061236b565b610851565b005b6101f760048036038101906101f291906125c2565b610871565b6040516102049190612aeb565b60405180910390f35b61022760048036038101906102229190612306565b610923565b6040516102349190612df6565b60405180910390f35b6102456109db565b6040516102529190612b96565b60405180910390f35b61027560048036038101906102709190612435565b610a6d565b005b610291600480360381019061028c91906123ba565b610a83565b005b6102ad60048036038101906102a891906125c2565b610ae5565b6040516102ba9190612b96565b60405180910390f35b6102dd60048036038101906102d8919061232f565b610de1565b6040516102ea9190612b7b565b60405180910390f35b60007f80ac58cd000000000000000000000000000000000000000000000000000000007bffffffffffffffffffffffffffffffffffffffffffffffffffffffff1916827bffffffffffffffffffffffffffffffffffffffffffffffffffffffff191614806103be57507f5b5e139f000000000000000000000000000000000000000000000000000000007bffffffffffffffffffffffffffffffffffffffffffffffffffffffff1916827bffffffffffffffffffffffffffffffffffffffffffffffffffffffff1916145b806103ce57506103cd82610f0e565b5b9050919050565b6060600080546103e4906130a6565b80601f0160208091040260200160405190810160405280929190818152602001828054610410906130a6565b801561045d5780601f106104325761010080835404028352916020019161045d565b820191906000526020600020905b81548152906001019060200180831161044057829003601f168201915b5050505050905090565b600061047282610f78565b6104b1576040517f08c379a00000000000000000000000000000000000000000000000000000000081526004016104a890612d56565b60405180910390fd5b6004600083815260200190815260200160002060009054906101000a900473ffffffffffffffffffffffffffffffffffffffff169050919050565b60006104f782610871565b90508073ffffffffffffffffffffffffffffffffffffffff168373ffffffffffffffffffffffffffffffffffffffff161415610568576040517f08c379a000000000000000000000000000000000000000000000000000000000815260040161055f90612db6565b60405180910390fd5b8073ffffffffffffffffffffffffffffffffffffffff16610587610fe4565b73ffffffffffffffffffffffffffffffffffffffff1614806105b657506105b5816105b0610fe4565b610de1565b5b6105f5576040517f08c379a00000000000000000000000000000000000000000000000000000000081526004016105ec90612c96565b60405180910390fd5b6105ff8383610fec565b505050565b600061061060076110a5565b905061061c33826110b3565b60006040518060600160405280878152602001858152602001848152509050600060405180606001604052808781526020018681526020018581525090506000610665836110d1565b90506106a56040518060400160405280600a81526020017f2d2d2d6d696e742d2d2d00000000000000000000000000000000000000000000815250610e75565b6106ae81610e75565b6106ec6040518060400160405280600a81526020017f2d2d2d6d696e742d2d2d00000000000000000000000000000000000000000000815250610e75565b6106f68482611149565b8160086000868152602001908152602001600020600082015181600001908051906020019061072692919061212a565b50602082015181600101908051906020019061074392919061212a565b50604082015181600201908051906020019061076092919061212a565b509050506107a46040518060400160405280601281526020017f49443a25732c20416464726573733a202573000000000000000000000000000081525085336111bd565b6107ae600761125c565b7f220ec096fff32ded1f996c317215383f61ff42601a1d402671aae94d4044d3bd33856040516107df929190612b52565b60405180910390a15050505050505050565b6108026107fc610fe4565b82611272565b610841576040517f08c379a000000000000000000000000000000000000000000000000000000000815260040161083890612dd6565b60405180910390fd5b61084c838383611350565b505050565b61086c83838360405180602001604052806000815250610a83565b505050565b6000806002600084815260200190815260200160002060009054906101000a900473ffffffffffffffffffffffffffffffffffffffff169050600073ffffffffffffffffffffffffffffffffffffffff168173ffffffffffffffffffffffffffffffffffffffff16141561091a576040517f08c379a000000000000000000000000000000000000000000000000000000000815260040161091190612cd6565b60405180910390fd5b80915050919050565b60008073ffffffffffffffffffffffffffffffffffffffff168273ffffffffffffffffffffffffffffffffffffffff161415610994576040517f08c379a000000000000000000000000000000000000000000000000000000000815260040161098b90612cb6565b60405180910390fd5b600360008373ffffffffffffffffffffffffffffffffffffffff1673ffffffffffffffffffffffffffffffffffffffff168152602001908152602001600020549050919050565b6060600180546109ea906130a6565b80601f0160208091040260200160405190810160405280929190818152602001828054610a16906130a6565b8015610a635780601f10610a3857610100808354040283529160200191610a63565b820191906000526020600020905b815481529060010190602001808311610a4657829003601f168201915b5050505050905090565b610a7f610a78610fe4565b83836115ac565b5050565b610a94610a8e610fe4565b83611272565b610ad3576040517f08c379a0000000000000000000000000000000000000000000000000000000008152600401610aca90612dd6565b60405180910390fd5b610adf84848484611719565b50505050565b6060610af082610f78565b610b2f576040517f08c379a0000000000000000000000000000000000000000000000000000000008152600401610b2690612d96565b60405180910390fd5b3373ffffffffffffffffffffffffffffffffffffffff16610b4f83610871565b73ffffffffffffffffffffffffffffffffffffffff161415610bb957610ba96040518060400160405280601381526020017f6d73672073656e646572206973206f776e657200000000000000000000000000815250610e75565b610bb282611775565b9050610ddc565b610bf76040518060400160405280601781526020017f6d73672073656e646572206973206e6f74206f776e6572000000000000000000815250610e75565b6000610dd560086000858152602001908152602001600020604051806060016040529081600082018054610c2a906130a6565b80601f0160208091040260200160405190810160405280929190818152602001828054610c56906130a6565b8015610ca35780601f10610c7857610100808354040283529160200191610ca3565b820191906000526020600020905b815481529060010190602001808311610c8657829003601f168201915b50505050508152602001600182018054610cbc906130a6565b80601f0160208091040260200160405190810160405280929190818152602001828054610ce8906130a6565b8015610d355780601f10610d0a57610100808354040283529160200191610d35565b820191906000526020600020905b815481529060010190602001808311610d1857829003601f168201915b50505050508152602001600282018054610d4e906130a6565b80601f0160208091040260200160405190810160405280929190818152602001828054610d7a906130a6565b8015610dc75780601f10610d9c57610100808354040283529160200191610dc7565b820191906000526020600020905b815481529060010190602001808311610daa57829003601f168201915b5050505050815250506110d1565b9050809150505b919050565b6000600560008473ffffffffffffffffffffffffffffffffffffffff1673ffffffffffffffffffffffffffffffffffffffff16815260200190815260200160002060008373ffffffffffffffffffffffffffffffffffffffff1673ffffffffffffffffffffffffffffffffffffffff16815260200190815260200160002060009054906101000a900460ff16905092915050565b610f0b81604051602401610e899190612b96565b6040516020818303038152906040527f41304fac000000000000000000000000000000000000000000000000000000007bffffffffffffffffffffffffffffffffffffffffffffffffffffffff19166020820180517bffffffffffffffffffffffffffffffffffffffffffffffffffffffff83818316178352505050506118c7565b50565b60007f01ffc9a7000000000000000000000000000000000000000000000000000000007bffffffffffffffffffffffffffffffffffffffffffffffffffffffff1916827bffffffffffffffffffffffffffffffffffffffffffffffffffffffff1916149050919050565b60008073ffffffffffffffffffffffffffffffffffffffff166002600084815260200190815260200160002060009054906101000a900473ffffffffffffffffffffffffffffffffffffffff1673ffffffffffffffffffffffffffffffffffffffff1614159050919050565b600033905090565b816004600083815260200190815260200160002060006101000a81548173ffffffffffffffffffffffffffffffffffffffff021916908373ffffffffffffffffffffffffffffffffffffffff160217905550808273ffffffffffffffffffffffffffffffffffffffff1661105f83610871565b73ffffffffffffffffffffffffffffffffffffffff167f8c5be1e5ebec7d5bd14f71427d1e84f3dd0314c0f7b2291e5b200ac8c7c3b92560405160405180910390a45050565b600081600001549050919050565b6110cd8282604051806020016040528060008152506118f0565b5050565b606060006110de8361194b565b9050600061111884600001516110f384611984565b604051602001611104929190612a27565b604051602081830303815290604052611984565b905060008160405160200161112d9190612a6c565b6040516020818303038152906040529050809350505050919050565b61115282610f78565b611191576040517f08c379a000000000000000000000000000000000000000000000000000000000815260040161118890612cf6565b60405180910390fd5b806006600084815260200190815260200160002090805190602001906111b892919061212a565b505050565b6112578383836040516024016111d593929190612bb8565b6040516020818303038152906040527fe3849f79000000000000000000000000000000000000000000000000000000007bffffffffffffffffffffffffffffffffffffffffffffffffffffffff19166020820180517bffffffffffffffffffffffffffffffffffffffffffffffffffffffff83818316178352505050506118c7565b505050565b6001816000016000828254019250508190555050565b600061127d82610f78565b6112bc576040517f08c379a00000000000000000000000000000000000000000000000000000000081526004016112b390612c76565b60405180910390fd5b60006112c783610871565b90508073ffffffffffffffffffffffffffffffffffffffff168473ffffffffffffffffffffffffffffffffffffffff16148061133657508373ffffffffffffffffffffffffffffffffffffffff1661131e84610467565b73ffffffffffffffffffffffffffffffffffffffff16145b8061134757506113468185610de1565b5b91505092915050565b8273ffffffffffffffffffffffffffffffffffffffff1661137082610871565b73ffffffffffffffffffffffffffffffffffffffff16146113c6576040517f08c379a00000000000000000000000000000000000000000000000000000000081526004016113bd90612d76565b60405180910390fd5b600073ffffffffffffffffffffffffffffffffffffffff168273ffffffffffffffffffffffffffffffffffffffff161415611436576040517f08c379a000000000000000000000000000000000000000000000000000000000815260040161142d90612c36565b60405180910390fd5b611441838383611b42565b61144c600082610fec565b6001600360008573ffffffffffffffffffffffffffffffffffffffff1673ffffffffffffffffffffffffffffffffffffffff168152602001908152602001600020600082825461149c9190612fbc565b925050819055506001600360008473ffffffffffffffffffffffffffffffffffffffff1673ffffffffffffffffffffffffffffffffffffffff16815260200190815260200160002060008282546114f39190612edb565b92505081905550816002600083815260200190815260200160002060006101000a81548173ffffffffffffffffffffffffffffffffffffffff021916908373ffffffffffffffffffffffffffffffffffffffff160217905550808273ffffffffffffffffffffffffffffffffffffffff168473ffffffffffffffffffffffffffffffffffffffff167fddf252ad1be2c89b69c2b068fc378daa952ba7f163c4a11628f55a4df523b3ef60405160405180910390a4505050565b8173ffffffffffffffffffffffffffffffffffffffff168373ffffffffffffffffffffffffffffffffffffffff16141561161b576040517f08c379a000000000000000000000000000000000000000000000000000000000815260040161161290612c56565b60405180910390fd5b80600560008573ffffffffffffffffffffffffffffffffffffffff1673ffffffffffffffffffffffffffffffffffffffff16815260200190815260200160002060008473ffffffffffffffffffffffffffffffffffffffff1673ffffffffffffffffffffffffffffffffffffffff16815260200190815260200160002060006101000a81548160ff0219169083151502179055508173ffffffffffffffffffffffffffffffffffffffff168373ffffffffffffffffffffffffffffffffffffffff167f17307eab39ab6107e8899845ad3d59bd9653f200f220920489ca2b5937696c318360405161170c9190612b7b565b60405180910390a3505050565b611724848484611350565b61173084848484611b47565b61176f576040517f08c379a000000000000000000000000000000000000000000000000000000000815260040161176690612bf6565b60405180910390fd5b50505050565b606061178082610f78565b6117bf576040517f08c379a00000000000000000000000000000000000000000000000000000000081526004016117b690612d36565b60405180910390fd5b60006006600084815260200190815260200160002080546117df906130a6565b80601f016020809104026020016040519081016040528092919081815260200182805461180b906130a6565b80156118585780601f1061182d57610100808354040283529160200191611858565b820191906000526020600020905b81548152906001019060200180831161183b57829003601f168201915b505050505090506000611869611cde565b905060008151141561187f5781925050506118c2565b6000825111156118b457808260405160200161189c929190612a03565b604051602081830303815290604052925050506118c2565b6118bd84611cf5565b925050505b919050565b60008151905060006a636f6e736f6c652e6c6f679050602083016000808483855afa5050505050565b6118fa8383611d9c565b6119076000848484611b47565b611946576040517f08c379a000000000000000000000000000000000000000000000000000000000815260040161193d90612bf6565b60405180910390fd5b505050565b606081602001518260400151836000015160405160200161196e93929190612a8e565b6040516020818303038152906040529050919050565b606060008251905060008114156119ad5760405180602001604052806000815250915050611b3d565b600060036002836119be9190612edb565b6119c89190612f31565b60046119d49190612f62565b905060006020826119e59190612edb565b67ffffffffffffffff811115611a24577f4e487b7100000000000000000000000000000000000000000000000000000000600052604160045260246000fd5b6040519080825280601f01601f191660200182016040528015611a565781602001600182028036833780820191505090505b50905060006040518060600160405280604081526020016139ef604091399050600181016020830160005b86811015611afa5760038101905062ffffff818a015116603f8160121c168401518060081b905060ff603f83600c1c1686015116810190508060081b905060ff603f8360061c1686015116810190508060081b905060ff603f831686015116810190508060e01b90508084526004840193505050611a81565b506003860660018114611b145760028114611b2457611b2f565b613d3d60f01b6002830352611b2f565b603d60f81b60018303525b508484525050819450505050505b919050565b505050565b6000611b688473ffffffffffffffffffffffffffffffffffffffff16611f6a565b15611cd1578373ffffffffffffffffffffffffffffffffffffffff1663150b7a02611b91610fe4565b8786866040518563ffffffff1660e01b8152600401611bb39493929190612b06565b602060405180830381600087803b158015611bcd57600080fd5b505af1925050508015611bfe57506040513d601f19601f82011682018060405250810190611bfb91906124d6565b60015b611c81573d8060008114611c2e576040519150601f19603f3d011682016040523d82523d6000602084013e611c33565b606091505b50600081511415611c79576040517f08c379a0000000000000000000000000000000000000000000000000000000008152600401611c7090612bf6565b60405180910390fd5b805181602001fd5b63150b7a0260e01b7bffffffffffffffffffffffffffffffffffffffffffffffffffffffff1916817bffffffffffffffffffffffffffffffffffffffffffffffffffffffff191614915050611cd6565b600190505b949350505050565b606060405180602001604052806000815250905090565b6060611d0082610f78565b611d3f576040517f08c379a0000000000000000000000000000000000000000000000000000000008152600401611d3690612d96565b60405180910390fd5b6000611d49611cde565b90506000815111611d695760405180602001604052806000815250611d94565b80611d7384611f7d565b604051602001611d84929190612a03565b6040516020818303038152906040525b915050919050565b600073ffffffffffffffffffffffffffffffffffffffff168273ffffffffffffffffffffffffffffffffffffffff161415611e0c576040517f08c379a0000000000000000000000000000000000000000000000000000000008152600401611e0390612d16565b60405180910390fd5b611e1581610f78565b15611e55576040517f08c379a0000000000000000000000000000000000000000000000000000000008152600401611e4c90612c16565b60405180910390fd5b611e6160008383611b42565b6001600360008473ffffffffffffffffffffffffffffffffffffffff1673ffffffffffffffffffffffffffffffffffffffff1681526020019081526020016000206000828254611eb19190612edb565b92505081905550816002600083815260200190815260200160002060006101000a81548173ffffffffffffffffffffffffffffffffffffffff021916908373ffffffffffffffffffffffffffffffffffffffff160217905550808273ffffffffffffffffffffffffffffffffffffffff16600073ffffffffffffffffffffffffffffffffffffffff167fddf252ad1be2c89b69c2b068fc378daa952ba7f163c4a11628f55a4df523b3ef60405160405180910390a45050565b600080823b905060008111915050919050565b60606000821415611fc5576040518060400160405280600181526020017f30000000000000000000000000000000000000000000000000000000000000008152509050612125565b600082905060005b60008214611ff7578080611fe090613109565b915050600a82611ff09190612f31565b9150611fcd565b60008167ffffffffffffffff811115612039577f4e487b7100000000000000000000000000000000000000000000000000000000600052604160045260246000fd5b6040519080825280601f01601f19166020018201604052801561206b5781602001600182028036833780820191505090505b5090505b6000851461211e576001826120849190612fbc565b9150600a856120939190613152565b603061209f9190612edb565b60f81b8183815181106120db577f4e487b7100000000000000000000000000000000000000000000000000000000600052603260045260246000fd5b60200101907effffffffffffffffffffffffffffffffffffffffffffffffffffffffffffff1916908160001a905350600a856121179190612f31565b945061206f565b8093505050505b919050565b828054612136906130a6565b90600052602060002090601f016020900481019282612158576000855561219f565b82601f1061217157805160ff191683800117855561219f565b8280016001018555821561219f579182015b8281111561219e578251825591602001919060010190612183565b5b5090506121ac91906121b0565b5090565b5b808211156121c95760008160009055506001016121b1565b5090565b60006121e06121db84612e36565b612e11565b9050828152602081018484840111156121f857600080fd5b612203848285613064565b509392505050565b600061221e61221984612e67565b612e11565b90508281526020810184848401111561223657600080fd5b612241848285613064565b509392505050565b60008135905061225881613992565b92915050565b60008135905061226d816139a9565b92915050565b600081359050612282816139c0565b92915050565b600081519050612297816139c0565b92915050565b600082601f8301126122ae57600080fd5b81356122be8482602086016121cd565b91505092915050565b600082601f8301126122d857600080fd5b81356122e884826020860161220b565b91505092915050565b600081359050612300816139d7565b92915050565b60006020828403121561231857600080fd5b600061232684828501612249565b91505092915050565b6000806040838503121561234257600080fd5b600061235085828601612249565b925050602061236185828601612249565b9150509250929050565b60008060006060848603121561238057600080fd5b600061238e86828701612249565b935050602061239f86828701612249565b92505060406123b0868287016122f1565b9150509250925092565b600080600080608085870312156123d057600080fd5b60006123de87828801612249565b94505060206123ef87828801612249565b9350506040612400878288016122f1565b925050606085013567ffffffffffffffff81111561241d57600080fd5b6124298782880161229d565b91505092959194509250565b6000806040838503121561244857600080fd5b600061245685828601612249565b92505060206124678582860161225e565b9150509250929050565b6000806040838503121561248457600080fd5b600061249285828601612249565b92505060206124a3858286016122f1565b9150509250929050565b6000602082840312156124bf57600080fd5b60006124cd84828501612273565b91505092915050565b6000602082840312156124e857600080fd5b60006124f684828501612288565b91505092915050565b6000806000806080858703121561251557600080fd5b600085013567ffffffffffffffff81111561252f57600080fd5b61253b878288016122c7565b945050602085013567ffffffffffffffff81111561255857600080fd5b612564878288016122c7565b935050604085013567ffffffffffffffff81111561258157600080fd5b61258d878288016122c7565b925050606085013567ffffffffffffffff8111156125aa57600080fd5b6125b6878288016122c7565b91505092959194509250565b6000602082840312156125d457600080fd5b60006125e2848285016122f1565b91505092915050565b6125f481612ff0565b82525050565b61260381613002565b82525050565b600061261482612e98565b61261e8185612eae565b935061262e818560208601613073565b6126378161323f565b840191505092915050565b600061264d82612ea3565b6126578185612ebf565b9350612667818560208601613073565b6126708161323f565b840191505092915050565b600061268682612ea3565b6126908185612ed0565b93506126a0818560208601613073565b80840191505092915050565b60006126b9603283612ebf565b91506126c482613250565b604082019050919050565b60006126dc601c83612ebf565b91506126e78261329f565b602082019050919050565b60006126ff602483612ebf565b915061270a826132c8565b604082019050919050565b6000612722601983612ebf565b915061272d82613317565b602082019050919050565b6000612745605783612ed0565b915061275082613340565b605782019050919050565b6000612768602c83612ebf565b9150612773826133b5565b604082019050919050565b600061278b600d83612ed0565b915061279682613404565b600d82019050919050565b60006127ae603883612ebf565b91506127b98261342d565b604082019050919050565b60006127d1602a83612ebf565b91506127dc8261347c565b604082019050919050565b60006127f4602983612ebf565b91506127ff826134cb565b604082019050919050565b6000612817602e83612ebf565b91506128228261351a565b604082019050919050565b600061283a600283612ed0565b915061284582613569565b600282019050919050565b600061285d602083612ebf565b915061286882613592565b602082019050919050565b6000612880603183612ebf565b915061288b826135bb565b604082019050919050565b60006128a3602c83612ebf565b91506128ae8261360a565b604082019050919050565b60006128c6602983612ebf565b91506128d182613659565b604082019050919050565b60006128e9602f83612ebf565b91506128f4826136a8565b604082019050919050565b600061290c600a83612ed0565b9150612917826136f7565b600a82019050919050565b600061292f605783612ed0565b915061293a82613720565b605782019050919050565b6000612952607783612ed0565b915061295d82613795565b607782019050919050565b6000612975602183612ebf565b915061298082613830565b604082019050919050565b6000612998601d83612ed0565b91506129a38261387f565b601d82019050919050565b60006129bb603183612ebf565b91506129c6826138a8565b604082019050919050565b60006129de607783612ed0565b91506129e9826138f7565b607782019050919050565b6129fd8161305a565b82525050565b6000612a0f828561267b565b9150612a1b828461267b565b91508190509392505050565b6000612a32826128ff565b9150612a3e828561267b565b9150612a4982612945565b9150612a55828461267b565b9150612a608261282d565b91508190509392505050565b6000612a778261298b565b9150612a83828461267b565b915081905092915050565b6000612a99826129d1565b9150612aa5828661267b565b9150612ab082612738565b9150612abc828561267b565b9150612ac782612922565b9150612ad3828461267b565b9150612ade8261277e565b9150819050949350505050565b6000602082019050612b0060008301846125eb565b92915050565b6000608082019050612b1b60008301876125eb565b612b2860208301866125eb565b612b3560408301856129f4565b8181036060830152612b478184612609565b905095945050505050565b6000604082019050612b6760008301856125eb565b612b7460208301846129f4565b9392505050565b6000602082019050612b9060008301846125fa565b92915050565b60006020820190508181036000830152612bb08184612642565b905092915050565b60006060820190508181036000830152612bd28186612642565b9050612be160208301856129f4565b612bee60408301846125eb565b949350505050565b60006020820190508181036000830152612c0f816126ac565b9050919050565b60006020820190508181036000830152612c2f816126cf565b9050919050565b60006020820190508181036000830152612c4f816126f2565b9050919050565b60006020820190508181036000830152612c6f81612715565b9050919050565b60006020820190508181036000830152612c8f8161275b565b9050919050565b60006020820190508181036000830152612caf816127a1565b9050919050565b60006020820190508181036000830152612ccf816127c4565b9050919050565b60006020820190508181036000830152612cef816127e7565b9050919050565b60006020820190508181036000830152612d0f8161280a565b9050919050565b60006020820190508181036000830152612d2f81612850565b9050919050565b60006020820190508181036000830152612d4f81612873565b9050919050565b60006020820190508181036000830152612d6f81612896565b9050919050565b60006020820190508181036000830152612d8f816128b9565b9050919050565b60006020820190508181036000830152612daf816128dc565b9050919050565b60006020820190508181036000830152612dcf81612968565b9050919050565b60006020820190508181036000830152612def816129ae565b9050919050565b6000602082019050612e0b60008301846129f4565b92915050565b6000612e1b612e2c565b9050612e2782826130d8565b919050565b6000604051905090565b600067ffffffffffffffff821115612e5157612e50613210565b5b612e5a8261323f565b9050602081019050919050565b600067ffffffffffffffff821115612e8257612e81613210565b5b612e8b8261323f565b9050602081019050919050565b600081519050919050565b600081519050919050565b600082825260208201905092915050565b600082825260208201905092915050565b600081905092915050565b6000612ee68261305a565b9150612ef18361305a565b9250827fffffffffffffffffffffffffffffffffffffffffffffffffffffffffffffffff03821115612f2657612f25613183565b5b828201905092915050565b6000612f3c8261305a565b9150612f478361305a565b925082612f5757612f566131b2565b5b828204905092915050565b6000612f6d8261305a565b9150612f788361305a565b9250817fffffffffffffffffffffffffffffffffffffffffffffffffffffffffffffffff0483118215151615612fb157612fb0613183565b5b828202905092915050565b6000612fc78261305a565b9150612fd28361305a565b925082821015612fe557612fe4613183565b5b828203905092915050565b6000612ffb8261303a565b9050919050565b60008115159050919050565b60007fffffffff0000000000000000000000000000000000000000000000000000000082169050919050565b600073ffffffffffffffffffffffffffffffffffffffff82169050919050565b6000819050919050565b82818337600083830152505050565b60005b83811015613091578082015181840152602081019050613076565b838111156130a0576000848401525b50505050565b600060028204905060018216806130be57607f821691505b602082108114156130d2576130d16131e1565b5b50919050565b6130e18261323f565b810181811067ffffffffffffffff82111715613100576130ff613210565b5b80604052505050565b60006131148261305a565b91507fffffffffffffffffffffffffffffffffffffffffffffffffffffffffffffffff82141561314757613146613183565b5b600182019050919050565b600061315d8261305a565b91506131688361305a565b925082613178576131776131b2565b5b828206905092915050565b7f4e487b7100000000000000000000000000000000000000000000000000000000600052601160045260246000fd5b7f4e487b7100000000000000000000000000000000000000000000000000000000600052601260045260246000fd5b7f4e487b7100000000000000000000000000000000000000000000000000000000600052602260045260246000fd5b7f4e487b7100000000000000000000000000000000000000000000000000000000600052604160045260246000fd5b6000601f19601f8301169050919050565b7f4552433732313a207472616e7366657220746f206e6f6e20455243373231526560008201527f63656976657220696d706c656d656e7465720000000000000000000000000000602082015250565b7f4552433732313a20746f6b656e20616c7265616479206d696e74656400000000600082015250565b7f4552433732313a207472616e7366657220746f20746865207a65726f2061646460008201527f7265737300000000000000000000000000000000000000000000000000000000602082015250565b7f4552433732313a20617070726f766520746f2063616c6c657200000000000000600082015250565b7f3b20666f6e742d66616d696c793a2073657269663b20666f6e742d73697a653a60008201527f20323470783b207d3c2f7374796c653e3c726563742077696474683d2731303060208201527f2527206865696768743d2731303025272066696c6c3d27000000000000000000604082015250565b7f4552433732313a206f70657261746f7220717565727920666f72206e6f6e657860008201527f697374656e7420746f6b656e0000000000000000000000000000000000000000602082015250565b7f3c2f746578743e3c2f7376673e00000000000000000000000000000000000000600082015250565b7f4552433732313a20617070726f76652063616c6c6572206973206e6f74206f7760008201527f6e6572206e6f7220617070726f76656420666f7220616c6c0000000000000000602082015250565b7f4552433732313a2062616c616e636520717565727920666f7220746865207a6560008201527f726f206164647265737300000000000000000000000000000000000000000000602082015250565b7f4552433732313a206f776e657220717565727920666f72206e6f6e657869737460008201527f656e7420746f6b656e0000000000000000000000000000000000000000000000602082015250565b7f45524337323155524953746f726167653a2055524920736574206f66206e6f6e60008201527f6578697374656e7420746f6b656e000000000000000000000000000000000000602082015250565b7f227d000000000000000000000000000000000000000000000000000000000000600082015250565b7f4552433732313a206d696e7420746f20746865207a65726f2061646472657373600082015250565b7f45524337323155524953746f726167653a2055524920717565727920666f722060008201527f6e6f6e6578697374656e7420746f6b656e000000000000000000000000000000602082015250565b7f4552433732313a20617070726f76656420717565727920666f72206e6f6e657860008201527f697374656e7420746f6b656e0000000000000000000000000000000000000000602082015250565b7f4552433732313a207472616e73666572206f6620746f6b656e2074686174206960008201527f73206e6f74206f776e0000000000000000000000000000000000000000000000602082015250565b7f4552433732314d657461646174613a2055524920717565727920666f72206e6f60008201527f6e6578697374656e7420746f6b656e0000000000000000000000000000000000602082015250565b7f7b226e616d65223a202200000000000000000000000000000000000000000000600082015250565b7f27202f3e3c7465787420783d273530252720793d273530252720636c6173733d60008201527f27626173652720646f6d696e616e742d626173656c696e653d276d6964646c6560208201527f2720746578742d616e63686f723d276d6964646c65273e000000000000000000604082015250565b7f222c20226465736372697074696f6e223a2022736563726574204e46542e206f60008201527f6e6c7920746865206f776e6572206f662061204e46542063616e20736565206160208201527f207370656369616c206d657373616765222c2022696d616765223a202264617460408201527f613a696d6167652f7376672b786d6c3b6261736536342c000000000000000000606082015250565b7f4552433732313a20617070726f76616c20746f2063757272656e74206f776e6560008201527f7200000000000000000000000000000000000000000000000000000000000000602082015250565b7f646174613a6170706c69636174696f6e2f6a736f6e3b6261736536342c000000600082015250565b7f4552433732313a207472616e736665722063616c6c6572206973206e6f74206f60008201527f776e6572206e6f7220617070726f766564000000000000000000000000000000602082015250565b7f3c73766720786d6c6e733d27687474703a2f2f7777772e77332e6f72672f323060008201527f30302f73766727207072657365727665417370656374526174696f3d27784d6960208201527f6e594d696e206d656574272076696577426f783d27302030203335302033353060408201527f273e3c7374796c653e2e62617365207b2066696c6c3a20000000000000000000606082015250565b61399b81612ff0565b81146139a657600080fd5b50565b6139b281613002565b81146139bd57600080fd5b50565b6139c98161300e565b81146139d457600080fd5b50565b6139e08161305a565b81146139eb57600080fd5b5056fe4142434445464748494a4b4c4d4e4f505152535455565758595a6162636465666768696a6b6c6d6e6f707172737475767778797a303132333435363738392b2fa2646970667358221220e09840591e121cb9276bd65ebd842abb929eb885dcedae75630b39e5f7aeb6fa64736f6c63430008040033",
  "linkReferences": {},
  "deployedLinkReferences": {}
}